:020000040800F2
:1000000010B60020056600088D0F00088F0F00084D
:10001000930F0008970F00089B0F000800000000D6
:100020000000000000000000000000009F0F00081A
:10003000A10F0008000000007DB00008A1630008C7
:100040001F6600081F6600081F6600081F6600087C
:100050001F6600081F6600081F6600081F6600086C
:100060001F6600081F6600081F6600081F6600085C
:100070001F6600081F6600081F6600081F6600084C
:100080001F6600081F6600081F660008634C000812
:10009000874B00081F6600081F6600081F660008DF
:1000A0003D3A0008053A00081F6600081F66000870
:1000B0002B6000086B3A00081F6600081F660008E6
:1000C0001F6600081F6600081F6600081F660008FC
:1000D0001F6600086F6500081F660008C95E0008FB
:1000E0001F6600081F6600081F6600081F660008DC
:1000F0001F6600081F6600081F6600081F660008CC
:100100001F6600081F6600081F6600081F660008BB
:100110003D5F00081F660008B93900081F66000827
:100120001F6600081F6600081F6600081F6600089B
:100130001F6600081F6600081F6600089F4C000825
:10014000FD4B00081F6600081F6600081F660008B8
:100150001F6600081F6600081F6600081F6600086B
:100160001F6600081F6600081F6600081F6600085B
:100170001F6600081F6600081F6600081F6600084B
:100180001F6600081F66000800F002F800F069F81A
:100190000AA090E8000C82448344AAF10107DA45E2
:1001A00001D100F05EF8AFF2090EBAE80F0013F0CB
:1001B000010F18BFFB1A43F001031847B8B800003D
:1001C000D8B800000A444FF0000C10F8013B13F0BF
:1001D000070408BF10F8014B1D1108BF10F8015BA0
:1001E000641E05D010F8016B641E01F8016BF9D193
:1001F00013F0080F1EBF10F8014BAD1C0C1B09D1EA
:100200006D1E58BF01F801CBFAD505E014F8016B5B
:1002100001F8016B6D1EF9D59142D6D370470000ED
:100220000023002400250026103A28BF78C1FBD8FF
:10023000520728BF30C148BF0B60704703681B0AD4
:1002400028BF41F0800164290AF06287F5290AF08D
:100250009B87002070471FB50BF026FA1FBD10B515
:1002600010BD0BF0EFF91146FFF7F5FF00F01AF89B
:100270000BF00DFA03B4FFF7F2FF03BC06F016F91A
:1002800070B50446002500BF00F096F90AF0CEFED6
:10029000054600F08AFA04200AF047FC28460AF0D6
:1002A000C9FE70BD10B54FF4407006F0CBF900F0F8
:1002B00011F800F001F908F06BFF0423044A002153
:1002C000AFF243000AF0B8F909F084F8002010BD3D
:1002D000EC06002010B50120FE490870FE480068B9
:1002E000FE4908604720FE49087006204860052046
:1002F0008860FA480068C860FA48086148610220CE
:10030000F9490870FF20F94908704FF6FF72802103
:10031000F7480BF076F84FF6FF728021F5480BF0A6
:1003200070F8F548C07920F080008030F249C8713B
:1003300010BD2DE9F0410AF079FE80464FF480515E
:10034000002005F082FC064640460AF073FE16B90E
:100350000020BDE8F0810AF069FE80464FF480512C
:10036000002005F072FC074640460AF063FE5FB9C4
:100370000AF05CFE80463146002005F056FC4046FF
:100380000AF058FE0020E4E74FF480520021304686
:1003900005F02CFA002505E0705DFF2800D004E090
:1003A000681C85B2B5F5805FF6DB00BFB5F5805FF0
:1003B00001D10020CDE7002414E04FF48052002149
:1003C000304605F013FA4FF48051304605F03EFBFD
:1003D00000B909E00A230022114610460AF09EFCEB
:1003E000601CC4B2032CE8DB00BF032C22DA4FF4FC
:1003F00080521146384605F0F9F94FF480523946DB
:1004000030460AF05BFF28B14FF480521146304667
:1004100005F092FA0AF00AFE80463146002005F007
:1004200004FC3946002005F000FC40460AF002FEBC
:1004300001208EE7002414E04FF480521146384624
:1004400005F0D4F94FF48051384605F0FFFA00B9B1
:1004500009E00A230022114610460AF05FFC601CE6
:10046000C4B2032CE8DB00BF032C15DA4FF4805232
:100470000021384605F060FA0AF0D8FD8046314682
:10048000002005F0D2FB3946002005F0CEFB4046A7
:100490000AF0D0FD01205CE70AF0C8FD8046314635
:1004A000002005F0C2FB3946002005F0BEFB4046A7
:1004B0000AF0C0FD00204CE710B5A82005F07CFF35
:1004C0004FF47A7005F0C8FF04F0ACFD04F00CFEA8
:1004D000052001F08BFEA7214FF6FF7002F0F7FF19
:1004E000002140F2A31003F014F940F2E731532049
:1004F00005F06AFDA7214FF6FF7003F041F8532184
:100500004FF6FF7003F095F805F0DCFD002005F0D4
:10051000DAFA022005F0D7FA05F0FBF8FFF709FF39
:1005200002F02DFF03F065FD02F0D2FC0122002154
:10053000B3EE040A084603F047FB042200219FEDB6
:100540006F0A012003F040FB03F000FD03F011F9F6
:1005500001F088F801225103694805F047F90122AA
:1005600042F20401674805F041F901220221664880
:1005700008F0A0F90121644807F084FD01216348D7
:1005800006F037FE4FF48071614806F0CFF9142170
:10059000002005F05AFB5F4908601421002005F097
:1005A00054FB5D49086014215B4800680AF053FF62
:1005B0005AA00AF0A1FD10BD10B5002009F0F1FD10
:1005C00059490860002009F0ECFD584908600020F6
:1005D00009F0E7FD56490860002009F0E2FD5549A1
:1005E0000860002009F0DDFD53490860002009F093
:1005F000D8FD52490860002009F0D3FD5049086039
:10060000002009F0CEFD4F490860002009F0C9FD27
:100610004D490860002009F0C4FD4C4908600020E5
:1006200009F0BFFD4A490860002009F0BAFD4949B8
:100630000860002009F0B5FD47490860002009F076
:10064000B0FD46490860002009F0ABFD4449086050
:10065000002009F0A6FD43490860002009F0A1FD33
:1006600041490860002009F09CFD404908600020D5
:1006700009F097FD3E490860002009F092FD3D49D0
:100680000860002009F08DFD3B490860002009F05A
:1006900088FD3A490860002009F083FD3849086068
:1006A000002009F0A2F837490860002009F09DF801
:1006B000354908600A21354809F096FA344908603E
:1006C000002009F092F833490860002009F08DF805
:1006D000314963E000000020107AFF1F0400002071
:1006E000A00300205C163401090000204D0000200A
:1006F000A002002020030020B80000203333054270
:10070000F90000200800002000400140004800409F
:10071000001402400C00002048000020B3F5CABCC1
:10072000BBAFB3C9B9A60000700000207400002060
:10073000780000207C000020800000208400002041
:10074000880000208C0000209000002094000020F1
:10075000980000209C000020A0000020EC00002059
:10076000F0000020F4000020540000205800002079
:100770005C000020E400002064000020A4000020B1
:1007800060000020A8000020AC000020B80300207A
:1007900050000020B4000020680000200860002005
:1007A00009F023F8FE49086010BD10B51523FD4A75
:1007B0000021FD4809F040FF0523FC4A0021FC48C8
:1007C00009F03AFF0623FB4A0021FB4809F034FFF9
:1007D0000723FA4A0021FA4809F02EFF0E23F94AAE
:1007E0000021F94809F028FF1223F84A0021F848AF
:1007F00009F022FF0923F74A0021F74809F01CFFFE
:100800001123F64A0021F64809F016FF1023F54A95
:100810000021F54809F010FF1323F44A0021F448A1
:1008200009F00AFF0D23F34A0021F34809F004FF01
:1008300010BD70B504462579042D16D004DC012DB9
:1008400007D0032D1AD108E0052D0AD0272D15D188
:1008500010E0204600F00AFD10E0204600F04AFDBE
:100860000CE0204600F0A6FC08E02146012004F040
:10087000E7F803E0204600F08AFE00BF00BF70BD2D
:1008800070B506460C462579102D06D0112D0CD0DA
:10089000122D06D0132D10D10BE0204600F08BFD59
:1008A0000BE0204600F022FE07E0204600F0CEFDDF
:1008B00003E0204600F043FE00BF00BF70BD2DE9FD
:1008C000F04781460C469246A088C0F30727267958
:1008D00017B1022F7ED113E0202E02D0222E0DD18F
:1008E00004E0012000F087FA00F08AFA2146012096
:1008F00004F0A6F8204602F07AFC00BF00BF69E0D1
:10090000202E23D006DC102E3CD0112E16D0122E15
:100910005ED13FE0222E04D0FB2E50D0FC2E57D1CA
:1009200040E00121002005F090F90546207A28706A
:1009300029469B48006809F099F849E021460120C2
:1009400004F07EF8204602F052FC41E021460120EE
:1009500004F076F814222146A84800680AF0AEFC9C
:1009600000F0FF08B8F1000F0BD00020A449C870B8
:1009700014222146A14800680AF011FD204602F029
:1009800036FC25E02146012004F05AF8204602F00A
:100990002EFC1DE02146012004F052F8204602F012
:1009A00026FC15E02146012004F04AF89548C0795C
:1009B000C0F3400010B100209349087008E02146C0
:1009C000012004F03DF89148006809F01FFD00BFC8
:1009D00000BF00BF00BFBDE8F0872DE9FE4F834692
:1009E00016461C46DDF830903746864800780128C8
:1009F0007ED1142F7DD008DC012F0DD0022F79D0AD
:100A0000102F23D0122F76D1A1E0162F0DD0182F42
:100A100013D0FF2FF7D103E0204600F027FCDCE1E4
:100A2000012000F0E8F900F0EBF92146012004F084
:100A300007F8204602F0DBFBCFE12146012003F05E
:100A4000FFFF7348006809F0E1FCC6E14FF00008C1
:100A50000025704805687048D0E90020521C40F11C
:100A600000006D49C1E90020607A217AA288C2F3B2
:100A70000722CDE90021029067480CC867480AF0B8
:100A80003BFB2146012003F0DBFFA088C0F30720D9
:100A9000009061480CC862A00AF02EFBA088C0F349
:100AA00007206E490978884247D00AF0BFFA82468B
:100AB000002053490870A088000A6849087021E0A6
:100AC00028698078E8B928690078A188C1F30721EE
:100AD000884216D1606829698860207A2969C870BF
:100AE000607A29690871002029694870022003E0B2
:100AF00074E127E168E16FE1296988704FF001082E
:100B000003E02D6928690028DAD100BF50460AF0B9
:100B100091FAB8F1000F03D1204602F068FB02E021
:100B20004FF0000859E1A088C0F3072000903A4830
:100B30000CC84BA00AF0E0FA08E0A088C0F3072038
:100B4000009035480CC852A00AF0D6FA45E1A088BA
:100B5000C0F30720009030480CC85C480AF0CCFA7B
:100B60002146012003F06CFFA088C0F3072000900D
:100B700029480CC856A00AF0BFFAA088C0F3072085
:100B800061490978884209D00AF050FA824600206B
:100B90001B494870A088000A5B49B7E0C8E0000024
:100BA0006C000020FC5C001029240008FC6400108C
:100BB000A7220008FC6C00102F230008FC74001012
:100BC000EB220008FCA40010A1230008FC84001004
:100BD000EB240008FCB40010872B0008FCC40010B4
:100BE000092C0008FCCC00106B2D0008FCD4001070
:100BF000192E0008FCBC0010532B000848000020F0
:100C000043000020B8000020000000206400002005
:100C100054000020E800002010000020D8B900088F
:100C20003CCAC2CEF14944A3BA256C6C753EA3A858
:100C3000322F3134A3A9D2D1BEADB6D42564BAC502
:100C4000D0A1B3B5C9EAC7EBD7AAB9ECD6A1BDF814
:100C5000D0D0BBD8D3A6A1A30D0A0000400000202D
:100C60003CCAC2CEF14944A3BA256C6C753E2564DA
:100C7000BAC5D0A1B3B5C9EAC7EBD7AAB9ECC8CEFB
:100C8000CEF1D2D1BEADBDA8C1A2A1A30D0A000074
:100C90003CCAC2CEF14944A3BA256C6C753EA3A8E8
:100CA000455252A3A9CAD5B5BD2564BAC5D0A1B3D2
:100CB000B5C9EAC7EBD7AAB9ECD6A1A3ACC8CECECA
:100CC000F1D6D8B8B4A1A30D0A0000002CBA0008D0
:100CD0003CCAC2CEF14944A3BA256C6C753EA3A8A8
:100CE000372F3134A3A9D2D1BEADB6D42564BAC54D
:100CF000D0A1B3B5D2D1BEADC9CFB9ECBDF8D0D07B
:100D0000BBD8D3A60D0A0000410000200870504651
:100D10000AF090F9A088C0F30720009040480CC862
:100D200040A00AF0E9F94A48006809F06FFB08E0C2
:100D3000A088C0F30720009039480CC845A00AF0ED
:100D4000DBF94AE0A088C0F30720009034480CC8C3
:100D50004FA00AF0D1F92146012003F071FEA088CE
:100D6000C0F3072000902E480CC859A00AF0C4F91F
:100D7000A088C0F307206449097888421AD00AF095
:100D800055F98246002061498870A088000A5E49B2
:100D9000087050460AF04EF9A088C0F30720009072
:100DA0001F480CC85AA00AF0A7F96448006809F067
:100DB0002DFB08E0A088C0F30720009018480CC85D
:100DC0005FA00AF099F908E0207A6D490870607A0E
:100DD0004870A07A887000E000BF0AE06848007898
:100DE00038B9012F03D1204600F040FA00E000BFDF
:100DF00000BFBDE8FE8F00F0010181F3138870474A
:100E0000BFF34F8F5F48006800F4E0605E4908431D
:100E1000001D5C490860BFF34F8F00BFFEE7000074
:100E2000100000203CCAC2CEF14944A3BA256C6C24
:100E3000753EB7A2CBCD2564BAC5D0A1B3B5D2D18A
:100E4000BEADC9CFB9ECD0C5BAC5C1BF0D0A00004F
:100E5000580000203CCAC2CEF14944A3BA256C6CAC
:100E6000753EA3A8455252A3A9CAD5B5BD2564BAFB
:100E7000C5D0A1B3B5D2D1BEADC9CFB9ECD6A1A36F
:100E8000ACB2BBB7A2CBCDD0C5BAC5C1BF0D0A00AD
:100E90003CCAC2CEF14944A3BA256C6C753EA3A8E6
:100EA00031322F3134A3A9D2D1BEADBDD3CAD5B50D
:100EB000BD20256420BAC5D0A1B3B5D2D1BEADCF77
:100EC000C2B9ECD6A1A3ACCFC2B9ECB5C00D0A0033
:100ED0003CCAC2CEF14944A3BA256C6C753EA3A8A6
:100EE00031332F3134A3A9D2D1BEADB6D42564BAE3
:100EF000C5D0A1B3B5CFC2B9ECD6A1BDF8D0D0BB97
:100F0000D8D3A60D0A0000004200002043000020B4
:100F10003CCAC2CEF14944A3BA256C6C753EB7A257
:100F2000CBCD2564BAC5D0A1B3B5D2D1BEADCFC2A9
:100F3000B9ECD0C5BAC5C1BF0D0A00005C000020E5
:100F40003CCAC2CEF14944A3BA256C6C753EA3A835
:100F5000455252A3A9CAD5B5BD2564BAC5D0A1B31F
:100F6000B5D2D1BEADCFC2B9ECD6A1A3ACB5ABB2B0
:100F7000BBB7A2CBCDD0C5BAC5C1BF0D0A0000001A
:100F8000B80000200CED00E00000FA05704700BF3B
:100F9000FEE700BFFEE700BFFEE700BFFEE77047C9
:100FA000704700000CB50020019000907648006862
:100FB00040F480307449086000BF7348006800F452
:100FC000003000900198401C0190009818B90198D9
:100FD000B0F5A04FF1D16C48006800F4003010B1BA
:100FE0000120009001E0002000900098012846D1E7
:100FF00065484030006840F08050634940310860E7
:101000006248006840F44040604908605E4808302B
:1010100000685D49083108600846006840F40040F7
:1010200008600846006840F4A05008605848091F4E
:101030000860081F006840F08070091F086000BF4A
:101040005148006800F000700028F9D040F20570A7
:10105000504908604C480830006820F003004A49B5
:10106000083108600846006840F00200086000BFD0
:1010700045480830006800F00C000828F8D10CBD85
:1010800010B54548006840F47000434908603E4888
:10109000006840F001003C49086000203A490831EE
:1010A0000860394800683D490840374908603C48B5
:1010B000091D0860081F006820F48020091F0860CF
:1010C000002031490C310860FFF76CFF4FF00060E1
:1010D00031498039086010BD70B50020002202231C
:1010E00000240221284D08352D6805F00C0020B1A0
:1010F000042806D0082834D107E02A4D2A4E35604E
:1011000033E02A4D284E35602FE01F4D2D1D2D68F0
:10111000C5F380541C4D2D1D2D6805F03F0154B1C1
:10112000224DB5FBF1F5184E361D3668C6F388160C
:1011300005FB06F209E01B4DB5FBF1F5124E361D1D
:101140003668C6F3881605FB06F20F4D2D1D2D6877
:10115000C5F301456D1C6B00B2FBF3F5124E356013
:1011600003E0104D104E356000BF00BF064D08353E
:101170002D68C5F303150E4E705D0B4D2D68C540EF
:10118000094E356070BD000000380240007000401C
:1011900008544007003C024088ED00E0FFFFF6FEE7
:1011A000103000240024F400C400002000127A0053
:1011B000C800002070B5054609F038FF0646142126
:1011C000002004F042FD0446002C41D0304609F0D6
:1011D00031FF1422294620460AF0E1F80020A060E1
:1011E000E060FE480068A060FC494968E1600820B2
:1011F0002070204603F0C4FEF8488068A060F749DC
:10120000C968E16008202070204603F0B9FEF34869
:101210000069A060F1494969E1600820207020461A
:1012200003F0AEFEED488069A060EC49C969E16059
:1012300008202070204603F0A3FE09F0F7FE0646C2
:101240002146002004F0F1FC304609F0F3FE0CE0EA
:101250000320E3498870E1484068401CDF4948604A
:101260004FF40071DF4805F061FB70BD70B50546B5
:1012700009F0DCFE06461421002004F0E6FC0446DA
:10128000002C2ED0304609F0D5FE142229462046E7
:101290000AF085F80020A060E06008202070D048A7
:1012A00000782072CE48417861728178A17201790C
:1012B000E172C1792173017A617300890112A1730E
:1012C000C748C179E173204603F05AFE09F0AEFE2B
:1012D00006462146002004F0A8FC304609F0AAFE8C
:1012E00007E00320BE498870BC484068401CBB49E9
:1012F000486070BD2DE9F047804609F097FE8146B1
:101300001421002004F0A1FC0446002C44D04846DF
:1013100009F090FE1422414620460AF040F80020D1
:10132000A060E06008202070002728E0002622E06E
:10133000002519E0AC4800EB471005EB860110F8DA
:10134000111004F1080000F81510A74800EB471031
:1013500005EB860130F8110002126800401C04F110
:1013600008010A54681CC5B2042DE3DB204603F0D3
:1013700007FE701CC6B2012EDADB781CC7B2042F40
:10138000D4DB09F053FE81462146002004F04DFCD9
:10139000484609F04FFE0CE00320914988708F48C1
:1013A0004068401C8D4948604FF400718D4805F03D
:1013B000BDFABDE8F08770B5054609F037FE064670
:1013C0001421002004F041FC0446002C30D03046AB
:1013D00009F030FE142120460AF03DF81422294677
:1013E000204609F0DCFF0020A060E06008202070AB
:1013F0007E48007820727D480088010A61727B482F
:101400000068010CA17279480068010EE172784809
:1014100001782173204603F0B3FD09F007FE06466C
:101420002146002004F001FC304609F003FE0CE0E8
:1014300003206B49887069484068401C67494860D0
:101440004FF40071674805F071FA70BD2DE9F04165
:10145000054609F0EBFD07461421002004F0F5FBDA
:1014600004469CB3384609F0E5FD1421204609F0F6
:10147000F2FF14222946204609F091FFE07A010686
:10148000A07A01EB0041607A01EB0020217A461836
:101490005648006886420BD009F0C8FD0746214631
:1014A000002004F0C2FB384609F0C4FDBDE8F0811D
:1014B000207B4F49087009F0B9FD074621460020FE
:1014C00004F0B3FB384609F0B5FD0DE0FFE703205B
:1014D0004349887041484068401C404948604FF487
:1014E0000071404805F022FA00BFDFE770B50546FD
:1014F00009F09CFD06461421002004F0A6FB0446DA
:10150000E4B1304609F096FD14222946204609F040
:1015100046FF0020A060E060012020703548007880
:101520002072204603F02CFD09F080FD064621467E
:10153000002004F07AFB304609F07CFD70BD70B5E8
:10154000054609F073FD06461421002004F07DFBDA
:101550000446DCB1304609F06DFD1421204609F047
:101560007AFF14222946204609F019FF0020A060C6
:10157000E060207A1F49087009F058FD06462146B0
:10158000002004F052FB304609F054FD70BD70B5E8
:10159000054609F04BFD06461421002004F055FBDA
:1015A0000446002C53D0304609F044FD1421204657
:1015B00009F051FF14222946204609F0F0FE0020D0
:1015C000A060E0600C48007820720B494968C4F8BC
:1015D00009100021A4F80D10E1730FE02000002095
:1015E000B800002000140240A002002004000020E7
:1015F000080000204D000020A003002008202070DB
:10160000204603F0BDFC0020A060E060FE49D1E967
:101610000201C4E9020108202070204603F0B0FC5A
:101620000020A060E060F849D1E90401C4E90201AA
:1016300008202070204603F0A3FC09F0F7FC0646C2
:101640002146002004F0F1FA304609F0F3FC70BDA9
:1016500001460868ED4A106010460068704702466F
:101660001160704710B500210022002016E0E84B01
:1016700003EB411333F810304FF6FF74A3420BD045
:10168000E34B03EB411333F81030934204DDE04B9E
:1016900003EB411333F81020431CD8B21028E6DBCB
:1016A000DC4B1A804FF6FF72002016E0D84B03EB9C
:1016B000411333F810304FF6FF74A3420BD0D44BD4
:1016C00003EB411333F81030934204DAD04B03EBB1
:1016D000411333F81020431CD8B21028E6DBCE4B60
:1016E0001A8010BD38B9CD4A928A01238B409A43A3
:1016F000CA4B9A821EE0012807D1C84AD28A012328
:101700008B409A43C54BDA8214E0022807D1C34AC2
:10171000128B01238B409A43C04B1A830AE00328A3
:1017200007D1BE4A538B01228A409343BB4A53835D
:1017300000E0704700BFFCE738B9B84A928A01233D
:101740008B401A43B54B9A821FE0012807D1B34A58
:10175000D28A01238B401A43B04BDA8215E002286B
:1017600007D1AE4A128B01238B401A43AB4B1A832D
:101770000BE0032808D1A94A538B01228A40134366
:101780009AB2A64B5A8300E0704700BFFCE72DE9F0
:10179000F84F4FF00008C146A148D0F800809F489C
:1017A000C08800285ED09D48C7881F2F18D19D484B
:1017B0000078012805D11F220121142002F061F8D0
:1017C00004E01F220021142002F05BF86A46002189
:1017D0009548006808F06BFD00209049C88041E002
:1017E00007F11F00B8B98F48007828B91F220121DE
:1017F000142002F046F804E01F220021142002F019
:1018000040F86A4600218848006808F050FD002032
:101810008249C88026E009F009FC82461421002094
:1018200004F013FA0546EDB1504609F003FC14210B
:10183000284609F010FE7D4868602F72390A6972E7
:1018400000202861284601F0D2FC00207349C8809E
:1018500009F0ECFB82462946002004F0E6F95046E8
:1018600009F0E8FB6D4800894FF6FF7188422CD0E3
:1018700009F0DCFB82461421002004F0E6F905465D
:10188000504609F0D7FB05B31421284609F0E3FDC3
:101890006648801E68606148007A28725F48008947
:1018A0000112697200202861284601F0A0FC4FF661
:1018B000FF705A49088109F0B9FB82462946002089
:1018C00004F0B3F9504609F0B5FB544840894FF68F
:1018D000FF71884225D009F0A9FB8246142100201F
:1018E00004F0B3F90546E5B1504609F0A3FB142115
:1018F000284609F0B0FD4D48401E68600020286170
:10190000284601F074FC4FF6FF704449488109F005
:101910008DFB82462946002004F087F9504609F0E5
:1019200089FB3E48808978B94148C079C0F34000BE
:1019300018B940480078012802D100203E490870BB
:101940004FF6FF703549888134488089012826D1B7
:1019500009E0D8F81090D9F81000C8F810004946EE
:10196000002004F062F9D8F810000028F1D12C48CA
:10197000D0F800802E48C079C0F3400018B92D4837
:101980000078012802D100202B4908704FF6FF7023
:101990002249888129480088C01C284908801F489E
:1019A0008089022812D1C102254804F0BDFF6423BA
:1019B00000221146104609F0B1F94FF48051204839
:1019C00004F0B4FF4FF6FF701449888113488089F2
:1019D000032806D101201B4908704FF6FF700F49FC
:1019E00088810E488089042809D117480078C0F101
:1019F0000100154908704FF6FF70084988810748B3
:101A00008089052829D121E0A0030020D8000020EA
:101A1000A0020020180000201A0000200C02002064
:101A2000E8000020F9000020F00000201202FE046F
:101A3000B80000201D00002000000020DC01002074
:101A4000000802400A000020DF0100200020FD49BC
:101A500008704FF6FF70FC498881FB488089062892
:101A600073D1FA48007800286BD0F8480078022833
:101A700067D0F6480078032847D10121880605F091
:101A8000BEF9962300221146104609F047F909F0E5
:101A9000CDFA82461421002004F0D7F804465046BF
:101AA00009F0C8FA1421204609F0D5FC0020207066
:101AB000606820F0FF006060606820F47F40606034
:101AC000606820F47F006060606820F08070606073
:101AD000606820F000706060606820F08060606086
:101AE000606820F000606060606820F08050606096
:101AF000204603F045FA09F099FA82462146002073
:101B000004F093F8504609F095FAD048007802287E
:101B100012D009F08BFA82460421002004F095F8D7
:101B20000646504609F086FA36B10120306031464B
:101B3000C748006807F09AFF4FF6FF70C2498881D6
:101B400003E04FF6FF70C0498881BF4880890728AD
:101B500073D1BE48007801286BD0BC4800780228B9
:101B600067D0BA480078032847D10121880605F0DC
:101B700046F9962300221146104609F0CFF809F0E5
:101B800055FA82461421002004F05FF804465046BE
:101B900009F050FA1421204609F05DFC0020207065
:101BA000606820F0FF006060606820F47F40606043
:101BB000606820F47F006060606820F08070606082
:101BC000606820F000706060606820F08060606095
:101BD000606820F000606060606820F080506060A5
:101BE000204603F0CDF909F021FA82462146002073
:101BF00004F01BF8504609F01DFA944800780228BA
:101C000012D009F013FA82460421002004F01DF8D6
:101C10000646504609F00EFA36B1022030603146D1
:101C20008B48006807F022FF4FF6FF7086498881D5
:101C300003E04FF6FF708449888183488089082833
:101C400027D18248007803281FD0804800780228D6
:101C500013D009F0EBF982460421002003F0F5FFD0
:101C60000646504609F0E6F956B104203060314688
:101C70007748006807F0FAFE02E003207349087015
:101C80004FF6FF707049888103E04FF6FF706E4990
:101C900088816D48C08920BB09F0C8F982461421AB
:101CA000002003F0D2FF0546DDB1504609F0C2F92D
:101CB0001421284609F0CFFB66486860002028619F
:101CC000284601F094FA4FF6FF705F49C88109F089
:101CD000ADF982462946002003F0A7FF504609F0DF
:101CE000A9F95948C089012805D101F0DFFB4FF659
:101CF000FF705549C8815448C089022806D1002088
:101D000001F0D4FB4FF6FF704F49C8814E48008A5E
:101D10004FF6FF7188423FD04B48008A00124E496F
:101D200001EB40104849097C30F811004FF6FF7173
:101D3000884216D1454801894348008A0012464A24
:101D400002EB4010404A127C20F812103E48008AF4
:101D50003E4988803C4A117C128A1012FFF7ECFC45
:101D600011E04FF6FF713848008A00123A4A02EB40
:101D70004010354A127C20F81210334A117C128A26
:101D80001012FFF7AFFC4FF6FF702F49088233485F
:101D90000088401C314908802B48408A01280FD117
:101DA00080222F492C4809F0B5FA00F079FF4FF650
:101DB000FF702549488229480088401C274908802F
:101DC0002148408A022810D14FF6FF728021224814
:101DD00009F017FB00F064FF4FF6FF701A494882C4
:101DE0001E480088401C1D4908801748408A98B941
:101DF000802219491A4809F08DFA01F0E8FA4FF6E5
:101E0000FF701149488215480088401C134908801A
:101E100000F046FFFFF726FC0B48808CD8B30A4839
:101E2000808C012822D14FF4FA720E480178C82024
:101E300001F027FD6A464FF47A710B48006808F0FC
:101E400036FA25E00A0000200C020020B80000202D
:101E5000680000202202FE0420030020DC01002094
:101E6000A0020020FB000020F0000020F648808C3B
:101E700002280DD14FF4FA72F4480178C82001F01D
:101E800000FD6A464FF47A71F148006808F00FFAD5
:101E90000020ED498884EC48808D4FF6FF71884220
:101EA00013D0E94890F82C00EA490870012242F268
:101EB0000401E84803F040FD4FF6FF70E2498885D1
:101EC000E5480088401CE4490880BDE8F88FE348F5
:101ED000007840B1E2480068006920B1DF48C0796D
:101EE000C0F3400008B1002070470120FCE72DE955
:101EF000F0410026002543E000253EE0D94800EBF4
:101F0000461030F815004FF6FF7188422FD009F0C7
:101F10008DF807461421002003F097FE0446FCB11B
:101F2000384609F087F81421204609F094FACE4883
:101F3000606025723112617200202061204601F03C
:101F400056F909F073F807462146002003F06DFEAC
:101F5000384609F06FF8BC48C08C401CBA49C884A8
:101F600042F2107300221146104608F0D7FEBB481B
:101F7000807800B103E0681CC5B2102DBEDB00BF45
:101F8000BA480078012803D1B44880780028B3D03B
:101F9000BDE8F08170B509F049F80646142100202B
:101FA00003F053FE0446304609F044F844B10120E2
:101FB0006070002020610320A070AB48401CA0602E
:101FC00008F02BFFE060A64805682C610020206126
:101FD00070BD10B54FF6FF72002111E0A14B33F830
:101FE00011304FF6FF74A34208D09E4B33F81130E6
:101FF000934203DA9B4B33F8112008464B1CD9B2AD
:102000001029EBDB10BD2DE9F8430646002500271B
:1020100093480568002409F009F88046142100203F
:1020200003F013FE0446404609F004F8142120464C
:1020300009F011FA002E3FD18848007800283BD0E3
:1020400086480078022837D0012020708148007827
:10205000874941EA004060600020207220612146EB
:10206000012002F060FE6A4600218248006808F004
:102070001EF99DF8000000281DD1784908700CE079
:102080002F693869286108F0D1FF80463946002061
:1020900003F0CBFD404608F0CDFF28690028EFD1C2
:1020A0006F4805686D48C079C0F34000002802D031
:1020B0000020714908708BE0032E48D167480078F2
:1020C000032844D00120207062480078684941EA22
:1020D0000040606003202072002020612146012022
:1020E00002F021FE6A4600216248006808F0DFF82D
:1020F0009DF8000000286BD10320584908709623F2
:1021000000221146104608F009FE00214FF08060C1
:1021100004F075FE0CE02F693869286108F086FF2D
:1021200080463946002003F080FD404608F082FFDB
:1021300028690028EFD14A4805684848C079C0F3AB
:102140004000002844D000204B49087040E0012E98
:102150003ED14248007801283AD040480078022811
:1021600036D0012020703B480078414941EA0040C8
:10217000606001202072002020612146012002F0D1
:10218000D2FD6A4600213B48006808F090F89DF8AF
:102190000000E8B90120314908700CE02F69386966
:1021A000286108F043FF80463946002003F03DFDDA
:1021B000404608F03FFF28690028EFD1284805680D
:1021C0002648C079C0F3400010B100202A490870A9
:1021D00008F02CFF80462146002003F026FD4046F3
:1021E00008F028FF1D480078BDE8F88310B50446C4
:1021F00024E04FF48071214804F096FB4FF46061B5
:102200001E4804F093FB4FF440711D4804F08EFB10
:10221000642004F021F94FF48071184804F086FB23
:102220004FF46061154804F07FFB4FF4407114488F
:1022300004F07AFB4FF4487004F00EF9201EA4F16C
:102240000101CCB2D5D110BD0C020020FA00002053
:10225000F000002008000020DC010020B800002071
:10226000E8000020A00200201002FE040A00002066
:10227000FB02000464000020000000200014024063
:102280000018024008B50020009000BF0AE06A462E
:1022900000215848006808F00AF8574801680020F3
:1022A00002F07CF9F3E708B50020009000BF0AE0D7
:1022B0006A4600215148006807F0F9FF4E4841681E
:1022C000012002F06BF9F3E708B50020009000BF91
:1022D0000AE06A4600214A48006807F0E8FF4948DA
:1022E0000168002002F033FBF3E708B500200090FE
:1022F00000BF0AE06A4600214348006807F0D7FFA4
:1023000040484168012002F022FBF3E708B50020B5
:10231000009000BF0AE06A4600213C48006807F0D0
:10232000C6FF3B480168002002F0E8FBF3E708B570
:102330000020009000BF0AE06A460021354800688E
:1023400007F0B5FF32484168012002F0D7FBF3E700
:1023500008B500240020009021E06A4600212E48A4
:10236000006807F0A4FF15E02C490968086902F02D
:1023700012FD2A4800680469284920690968086133
:1023800008F054FE05462146002003F04EFC284686
:1023900008F050FE2148006800690028E4D1DCE71D
:1023A00008B5002400BF0020009021E06A4600210B
:1023B0001B48006807F07BFF15E01A4909680869A7
:1023C00002F020FD17480068046916492069096871
:1023D000086108F02BFE05462146002003F025FC8D
:1023E000284608F027FE0F48006800690028E4D15D
:1023F000DCE70000700000200401002074000020D1
:1024000078000020140100207C00002080000020C3
:102410000C010020840000209C0000201C010020F2
:10242000A00000202001002000BF00245CE04FF449
:102430000071344804F07AFA4FF4FA73002211461E
:10244000104608F06BFC4FF400712E4804F06CFA53
:102450004FF4FA7300221146104608F05FFC2A4838
:1024600001780078401C284A10700A2905D1002004
:1024700011460870FF2025490870234841784078AC
:10248000401C214A50700A2905D10020114648708D
:10249000FF201F4908701C4881788078401C1A4A28
:1024A00090700A2905D1002011468870FF20194933
:1024B00008701548C178C078401C134AD0700F29A5
:1024C00007D100201146C87014211348006808F095
:1024D000C2FF002003F012FB601CC4B2092C01D122
:1024E000002400BFFFF703FDA1E700BF09E002F0F1
:1024F0007BFF02F0B0FD0A2300221146104608F0CF
:102500000DFCF4E7001402404300002040000020CE
:102510004100002042000020480000202DE9F04149
:1025200000240025A046FE48046808F07FFD074609
:1025300035E0FC48007801280DD02069407868B368
:10254000D4F81080206900692061384608F072FDD7
:102550004046BDE8F0812069807802280BD02069D0
:102560008078032807D020698078052803D0206967
:102570008078062809D1D4F810802069006920618C
:10258000384608F057FD4046E3E7E748007828B9A9
:1025900025B92069807808B926462569246920690B
:1025A0000028C6D10DB128693061384608F042FDD7
:1025B0002846CEE72DE9F04104464FF6FF774FF06D
:1025C000FF0800BF00251CE0D84800EB451030F89C
:1025D00014004FF6FF71884211D0D44901EB451128
:1025E00031F81410CF4A1289881A002801DB0146FD
:1025F00000E041428EB2BE4201DA3746A846681C6E
:10260000C5B2042DE0DBB8F1FF0F08D1C548C07991
:1026100020F00200C349C8716520BDE8F081214661
:10262000002000F019FDA0420AD10120BE49087027
:10263000BC48C07920F00200BA49C8710020ECE71C
:102640000020EAE770B508F0F1FC054614210020EF
:1026500003F0FBFA0446284608F0ECFC142120465F
:1026600008F0F9FEB2480068C178002000F0F4FCE0
:10267000B0480088401CAF490880AD4800688068B9
:10268000AD4988420DD001202070A94800688068BB
:10269000606055202072002020612146012002F058
:1026A00042FB08F0C3FC05462146002003F0BDFABA
:1026B000284608F0BFFC9B48C07920F002009949E9
:1026C000C871002070BD70B508F0B0FC054614213B
:1026D000002003F0BAFA0446284608F0ABFC1421A7
:1026E000204608F0B8FE012000F000FC9048006889
:1026F00080689149491C88420CD0012020708C4888
:1027000000688068606000202072206121460120FE
:1027100002F009FB08F08AFC05462146002003F080
:1027200084FA284608F086FC7E48C07920F0020032
:102730007C49C871002070BD2DE9F04708F076FC97
:1027400081461421002003F080FA0446484608F030
:1027500071FC1421204608F07EFE4FF00008002690
:10276000012000F0C3FB00BF0BE0704800EB4810F5
:1027700030F816004FF6FF71884200D03746701CC3
:10278000C6B2102EF1DB694800884FF6FF7188420F
:1027900001D0002500E001253946002000F05CFC56
:1027A000B8423CD12946002000F056FCA84226D170
:1027B0005F48006880686049123188421FD0082055
:1027C00020705B480068806860605648007820721E
:1027D0005448417861728178A1720179E172C179BE
:1027E0002173017A617300890112A1734D48C17987
:1027F000E173002020612146012002F094FA08F0E4
:1028000015FC81462146002003F00FFA484608F0E7
:1028100011FC4448C07920F002004249C8710020F0
:10282000BDE8F087F8B5424800680079002101EB67
:1028300000203F490968C97844183D48006800797C
:10284000C01108B9A4B201E03C480443E50F002CD4
:1028500002DAE043461C00E02646394800780128A9
:1028600003D1C5F10100C5B203E03548007800B9D5
:1028700000BF32462946642001F003F86A464FF44F
:10288000FA613048006807F012FD9DF800000A2840
:1028900024D1622023498870C5F10100C1B24FF4F0
:1028A0007A72C82000F0EDFF6A464FF47A7125482D
:1028B000006807F0FCFC9DF8000018B1642019497D
:1028C000887005E04FF47A722946C82000F0D9FFDD
:1028D0006A4600211B48006807F0E9FC0020F8BDAB
:1028E0002DE9F8430020184908700024002600252F
:1028F00008F09CFB81461421002003F0A6F9044651
:102900001421002003F0A1F906461421002003F051
:102910009CF90546484608F08DFB03208046D6E02A
:10292000E8000020B800002047000020A00200209E
:10293000DC000020DC0100201002FE040000FFFF8C
:10294000F9000020F0000020E0000020A3480078FB
:1029500006286ED2DFE800F0033459636EABA0485E
:102960000068C178002000F077FBC7B29C4800687F
:10297000C0789C4931F81000994909680979994A49
:1029800032F81110884217D195480068C078114676
:1029900031F810004FF6FF7188420DD09048006862
:1029A0000079114631F810004FF6FF71884203D0CC
:1029B00004208A49087002E001208849087085E0F7
:1029C0001421204608F047FD02202070844800684A
:1029D000007800048449097840EA012040F01100A1
:1029E00040F0A05060607E480068C07820727C484B
:1029F000006801796172002020612146012002F007
:102A000092F902207549087060E06A460021774813
:102A1000006807F04CFC03207049087056E07048CD
:102A200000680179002000F017FB04206B49087052
:102A30004CE04AE01421304608F00DFD00203070D3
:102A400067480068007800046749097840EA012077
:102A500040F0130040F0A05070600020306131461B
:102A6000012002F060F91421002003F0EEF8054681
:102A70001421284608F0EFFC012028705A480078FD
:102A80004FF0806141EA004040F4007040F02100C6
:102A90006860534800680078287200202861294641
:102AA000012002F040F905204C4908700EE06A460A
:102AB00043F698214E48006807F0F9FB00204D4985
:102AC000087006204549087000E000BF00BFB8F15B
:102AD000000F04DD4148007806287FF437AFBDE8D9
:102AE000F88310B500243E4800688078072820D27B
:102AF000DFE800F0041F0B0F13171B0038490968AB
:102B0000C878FFF757FD044613E0FFF7E9FE0446D7
:102B10000FE0FFF7D8FD04460BE0FFF70DFE04467B
:102B200007E0FFF78FFD044603E0FFF77BFE044656
:102B300000BF00BF204610BD10B508F077FA04466C
:102B400027480168002003F070F8204608F072FA68
:102B500010BD29480078012801D1FFF71BFA11E0C8
:102B6000FFF7DCFC1E49086030B90A230022114639
:102B7000104608F0D3F805E0FFF7B3FF08B9FFF7F8
:102B8000DBFF00BFECE700BF27E01C48007800280F
:102B90001DDD0A2300221146104608F0BFF8184830
:102BA000006800F0020028B9002016490870134997
:102BB000087012E01248006800F0020002280CD1F0
:102BC00001201049087000200C49087005E0052319
:102BD00000221146104608F0A1F8D6E7E0000020D8
:102BE000DC000020A0020020080000205800002087
:102BF0005C00002047000020B80000204C000020AE
:102C0000100402400200002000BF08F00FFA054641
:102C10001421002003F019F80446284608F00AFAA7
:102C20001421204608F017FC00202070606820F076
:102C3000FF006060606820F47F406060606820F49E
:102C40007F006060606820F080706060606820F0E5
:102C500000706060606820F080606060606820F0F4
:102C600000606060606820F08050606014E00B4895
:102C70000078012805D1204602F082F9002007499A
:102C8000087006480078401C0449087000230A2296
:102C90001946184608F042F8E9E70000090200204A
:102CA00010B50020002100224B4B9A82DA821A8351
:102CB0005A8300BF1EE0002118E0484A02EB401290
:102CC00032F811204FF6FF739A420DD000F10A023C
:102CD000414B33F8122001238B401A4393B200F189
:102CE0000A023D4C24F812304A1CD1B21029E4DB10
:102CF000421CD0B20428DEDB10BD10B5002000213C
:102D00000022354B9A83DA831A845A8400BF1EE06E
:102D1000002118E0324A02EB401232F811204FF63F
:102D2000FF739A420DD000F10E022B4B33F81220A4
:102D300001238B401A4393B200F10E02264C24F873
:102D400012304A1CD1B21029E4DB421CD0B2042854
:102D5000DEDB10BD0020234A116802E00969421C35
:102D600090B20A69002AF9D1704708B5002400BF63
:102D700031E06A4600211C48006807F098FA1B48B9
:102D800000891549088019488088488017480078CC
:102D9000888016484078088514488078488514480B
:102DA0000078C885FFF7D6FF0B490886002002F09F
:102DB000A5FE09494886FFF7A0FF03F091FAFEF748
:102DC000E6FC601CC4B2042C05D10A480089401CF2
:102DD000084908810024CCE70C02002020030020D1
:102DE000A0020020E8000020E4000020B80000203D
:102DF0000800002018070020324909780170314985
:102E0000497841702F49897881702E490979C170BC
:102E10002C49C979017170471FB5002002900390B9
:102E200000BF34E06846FFF7E7FF0522694602A8C5
:102E300008F044FA38B94FF4967300221146104650
:102E400007F06CFF23E0DDE90001CDE9020108F0A5
:102E5000EDF805461421002002F0F7FE044628464E
:102E600008F0E8F84CB11848007840F2012141EA36
:102E7000004060602046FEF7F9F908F0D7F80546F3
:102E80002146002002F0D1FE284608F0D3F8C9E719
:102E900008B500BF15E06A4600210C48006806F03E
:102EA0002AFD04462178491EC8B2FFF7ACF808F0A5
:102EB000BDF805462146002002F0B7FE284608F07E
:102EC000B9F8E8E7B80000200800002068000020FA
:102ED00010B51421002002F0B8FEF8490860084639
:102EE000006810B100200968086110BD38B50446BB
:102EF0004FF6FF70F2498880F248006800F0020047
:102F0000C0B9F148007838B940F2DC52EF48017896
:102F1000642000F0B6FC06E040F2DC52EC48017898
:102F2000642000F0AEFC6A464FF49671E9480068F0
:102F300007F0BDF901221821E74805F0BBFC17E0B6
:102F4000E148007818B9642000F071FC02E06420C8
:102F500000F043FCE148007850B90120DF490870D7
:102F6000DF49087000221821DB4805F0A3FC03E0CC
:102F7000DC4800780028E3D100BF6A464FF4967120
:102F8000D448006807F093F9D5480078012829D083
:102F900017E0CD48007818B9962000F01EFC02E03A
:102FA000962000F044FCCD48007850B90120CB4970
:102FB0000870CB49087000221821C74805F07AFC38
:102FC00003E0C84800780128E3D100BF002218219F
:102FD000C14805F06FFC6A464FF49671BD48006821
:102FE00007F065F90020C0490870C0480088401CFF
:102FF000BE490880BA48007801280BD14FF6FF700F
:10300000AF4988800846C07940F00100C8710020AF
:1030100008810DE04FF6FE70A949888000200881E4
:1030200088700846C07940F00100C87100204870DF
:10303000012C0BD1AA480078012807D0FEF7C9FF60
:1030400005462946FF2000F007F803E00020A449C8
:10305000087038BD00BFFCE72DE9F84F06460C4666
:1030600007F0E4FF82461421002002F0EEFD8046C6
:10307000B8F1000F06D0504607F0DCFF142140469F
:1030800008F0E9F99A4830F814004FF6FF718842C9
:103090000DD107F0CBFF82464146002002F0C5FD6E
:1030A000504607F0C7FF4FF6FF70BDE8F88FFF2EC0
:1030B00012D083480079A0420EDDFEF78AFFA042BD
:1030C0000BD18C480078082807DB0020FFF70EFFA3
:1030D00000208849087000E00026854800EB461073
:1030E00030F8140076490989451A85B944EA062062
:1030F0007349888007F09AFF82464146002002F01B
:1031000094FD504607F096FF6D488088CDE7002D6E
:103110006AD0EF0F002D03DAE84300F1010900E067
:10312000A94669480078012803D1C7F10100C7B258
:1031300003E06548007800B900BF4A46394664207C
:1031400000F09FFB6A464FF4FA616248006807F09E
:10315000AEF89DF800000A2829D1622058498870ED
:10316000C7F10100C1B24FF47A72C82000F089FBA8
:103170006A464FF47A715748006807F098F89DF84E
:10318000000018B164204E49887005E04FF47A724F
:103190003946C82000F075FB6A4600214D4800689A
:1031A00007F085F8002046498870534908704C485C
:1031B0000078012806D1FF20414988800020484935
:1031C000087003E044EA06203D49888049480078B9
:1031D000401C484908703A48C07920F040003849FE
:1031E000C8710846808860E7354880885DE72DE92A
:1031F000F041054607F01AFF07461421002002F0AF
:1032000024FD0446384607F015FF002C76D0142123
:10321000204608F020F9287920280BD100202061D1
:10322000287AE07000206070A070287A20716868A9
:10323000A06085E02879102813D16868C0F3007079
:1032400078B100202061A888000A2070287AE070F8
:10325000002060700220A070687A20716868A06009
:103260006EE0287911280BD10020206128791128DF
:1032700001D10320A070012060706868A0605FE049
:103280002879222806D10420A07001206070686887
:10329000A06055E02879102832D16868C0F300702A
:1032A00068BB00202061287AE070687A20710120D4
:1032B00060700520A0706868A06041E0E800002010
:1032C000B800002010040240F9000020FA0000209D
:1032D000FB000020F000002000040040000000205F
:1032E00001000020020000204C000020DC01002032
:1032F000A00200201E000020DE01002033E0FFE7D6
:103300002879122810D16868C0F3007060B90020D5
:103310002061287AE070687A2071012060700620B0
:10332000A0706868A0600BE007F080FE07462146A9
:10333000002002F07AFC384607F07CFEBDE8F08100
:1033400007F06BFDE0605448066807F06FFE074623
:1033500000E0366930690028FBD1346120613846CD
:1033600007F068FE09E007F061FE074621460020ED
:1033700002F05BFC384607F05DFE00BFDEE770B58B
:103380000024002582220021444802F02FFA00BFC9
:1033900019E0002413E0680100EB44003F49095C98
:1033A000680100EB4400401C3C4A105C01EB00202B
:1033B0003B4901EB451121F81400601CC4B2102CEC
:1033C000E9DB681CC5B2042DE3DB012070BD70B5DC
:1033D000002400258221334808F01BF800BF1CE0C0
:1033E000002416E02E4800EB451010F81400690187
:1033F00001EB44012B4A5054294800EB451030F8AA
:1034000014000112680100EB4400401C1154601CC0
:10341000C4B2102CE6DB681CC5B2042DE0DB8021B1
:10342000204802F033FE00121E4981F880008021FE
:103430001C4802F02BFE1B4981F8810082220021EA
:10344000184802F079FA82224FF48051154802F0B0
:1034500073FA70BD10B502465AB9084601EBD07335
:103460005C100423A340104CE47923430E4CE37119
:103470000FE0012A0BD1084601EBD0735C10042346
:10348000A340094CE4799C43074BDC7101E0002028
:1034900010BD0548C079FBE7E80000206204002069
:1034A000A0020020E0030020B800002010B5044670
:1034B000012C02D1FE49087003E014B90020FC4938
:1034C000087001225103FA4802F036FA10BD30B5F7
:1034D00089B004460D460121480403F0A1FC0121F6
:1034E000202003F043FC4020049002208DF81400BB
:1034F00001208DF8170004A9EE4803F099F9032282
:103500000621EC4803F01FFAADF804500020ADF896
:1035100006000294ADF80C0001A9E74804F029FD6B
:103520000020ADF818000220ADF81A000120ADF817
:103530001C000020ADF81E00ADF8200006A9DE48F2
:1035400005F0EEF80221DC4805F0DCF90122022149
:10355000D94805F0AFF919208DF800000B208DF83F
:10356000010000208DF8020001208DF8030068465C
:1035700003F06DF80121D04804F084FD09B030BD9E
:1035800030B589B004460D460121080403F048FC1B
:103590000121102003F0EAFB2020049002208DF886
:1035A000140001208DF8170004A9C44803F040F965
:1035B00003220521C14803F0C6F9ADF804500020EC
:1035C000ADF806000294ADF80C0001A9BC4804F067
:1035D000D0FC0020ADF818000220ADF81A00012040
:1035E000ADF81C000020ADF81E00ADF8200006A9C3
:1035F000B34805F095F80221B14805F083F900229F
:103600000221AF4805F056F918208DF800000C2073
:103610008DF8010000208DF8020001208DF80300D4
:10362000684603F014F80021A54804F02BFD09B00A
:1036300030BD30B589B004460D460121022003F0AB
:10364000DEFB0121022003F091FB03200490022005
:103650008DF8140001208DF8170004A9994803F093
:10366000E7F802220021974803F06DF902220121B8
:10367000944803F068F9ADF804500020ADF8060056
:103680000294ADF80C0001A98F4804F072FC0820E8
:10369000ADF818000A20ADF81A000120ADF81C00A2
:1036A0000020ADF81E00ADF8200006A9864805F000
:1036B00037F80C20ADF818000A20ADF81A000120E8
:1036C000ADF81C000020ADF81E00ADF8200006A9E2
:1036D0007D4805F025F818217B4805F013F90022F4
:1036E0001821794805F0E6F81D208DF800000D201E
:1036F0008DF8010000208DF8020001208DF80300F4
:10370000684602F0A4FF01216F4804F0BBFC09B039
:1037100030BD7FB504460D460121102003F06FFB3C
:10372000ADF804500020ADF806000294ADF80C008E
:1037300001A9664804F01DFC0121644805F0E2F887
:1037400001221146614805F0B5F801215F4804F0F7
:1037500099FC36208DF800000A208DF80100002029
:103760008DF8020001208DF80300684602F06FFF1B
:103770007FBD1CB50121402003F0F8FAC020009065
:1037800001208DF8040000208DF8060003208DF83C
:10379000050001208DF8070069464D4803F048F800
:1037A0000121042003F0E2FA4FF440500090012080
:1037B0008DF8040000208DF8060003208DF8050028
:1037C00001208DF807006946424803F031F84FF4B4
:1037D0008051404803F0AAF81CBD38B504460020CB
:1037E00000903D4908603D490C7001203C49C1F8FA
:1037F0009C020121354804F045FC6A460021394805
:10380000006806F054FD35490C7000203249091D4E
:10381000086001212D4804F035FC6A46002131483A
:10382000006806F044FD01202F49087038BD38B506
:1038300004460020009001202749086027490C70A9
:103840002749C1F89C020121204804F01BFC6A466C
:1038500000212448006806F02AFD20490C70002051
:103860001D49091D08600121184804F00BFC6A4637
:1038700000211C48006806F01AFD00201A49087053
:1038800038BD2DE9F04706460F46144600254FF097
:1038900064084FF0FF3A4FF6FF70144988804645A0
:1038A00005D9A6EB0800B4FBF0F04FEA50091FE081
:1038B000F9000020001402400044014000100240C2
:1038C000004001400004024000040040001000409D
:1038D000001802400008024098024342F80000200D
:1038E00000004342EC0000201C000020B800002033
:1038F00001206F4908706F48007887422BD100BFC4
:1039000020E06D48007828B901206B4908706B49A8
:10391000087019E0002504E03046FFF75EFF681CE0
:10392000C5B2022DF8DB6648007828B965480089E1
:10393000401C6449088104E062480089401E6149D6
:103940000881641E002CDCD100BF0020584908709B
:103950000120BDE8F0875C48007887422AD100BF8B
:1039600020E05548007828B9012053490870534990
:10397000087019E0002504E03046FFF758FF681C86
:10398000C5B2022DF8DB4E48007828B94D480089B1
:10399000401E4C49088104E04A480089401C4949BE
:1039A0000881641E002CDCD100BF00204049087053
:1039B0000120CEE70020CCE710B505F0FDFB01218A
:1039C000424804F08EFF012815D141480088401D6F
:1039D0003F4908803F4800780988401A02280ADCDD
:1039E00000203B4908800021384804F04BFB3A484E
:1039F000006806F00BFD0121344804F083FF05F058
:103A0000F6FB10BD10B505F0D7FB0221334804F0DA
:103A100068FF38B132480068008918B9304800683A
:103A200006F0F4FC2F48C088401C2E49C8800321B2
:103A30002A4804F067FF05F0DAFB10BD10B505F069
:103A4000BBFB0221284804F04CFF58B127480088EE
:103A50000A302649088061201A49887002212248CC
:103A600004F050FF05F0C3FB10BD10B505F0A4FB3A
:103A700010211F4804F035FF40B11E480078401C5B
:103A80001C49087010211A4804F03CFF082118480E
:103A900004F027FF40B117480078401C1549087012
:103AA0000821134804F02EFF05F0A1FB10BD000013
:103AB0001D000020FA00002000000020010000206E
:103AC000F9000020B8000020FB000020001000409A
:103AD000FC000020F8000020EC0000200044014021
:103AE000F00000201807002000400140DC01002009
:103AF000000400404C000020F8B506460F4615466D
:103B00001C463946304603F0C8FC2946F84803F005
:103B10004EFD04F0010098B101220221F44804F0A6
:103B200026F814208DF8000006208DF801000020F2
:103B30008DF8020001208DF80300684602F087FD31
:103B400004F0020098B101221021E94804F00FF8B6
:103B500015208DF8000008208DF8010000208DF858
:103B6000020001208DF80300684602F070FD04F0A9
:103B7000040098B101220221DE4803F0F8FF402042
:103B80008DF8000007208DF8010000208DF802005C
:103B900001208DF80300684602F059FD04F008008A
:103BA00080B101221021D34803F0E1FF41208DF8BC
:103BB000000009208DF8010000208DF8020001208E
:103BC0008DF803000020F8BDF0B52DED028B89B013
:103BD0000746B0EE408A0E461546002417B1012F65
:103BE0007DD1A6E00121084603F0C0F80121480676
:103BF00003F005F94FF4C050079002208DF8200023
:103C000000208DF8220003208DF8210001208DF87E
:103C1000230007A9B84802F00BFE09220B21B64881
:103C200002F091FE09220C21B34802F08CFE002420
:103C30003BE004EB4400B14901EB800090ED000A49
:103C4000B4EE480AF1EE10FA2DD100208DF81600DE
:103C500001208DF8170000208DF818008DF819004C
:103C60008DF81A008DF81B008DF8126004EB4400EB
:103C700001EB800000798DF8130004EB440001EBA8
:103C8000800040798DF8140004EB440001EB8000C3
:103C900080798DF8150004EB440001EB8000008969
:103CA000ADF810000E24601CC4B20E2CC1DB05F070
:103CB0000100E8B100208DF80A008DF80B0001200A
:103CC0008DF80C000020ADF80000ADF80200ADF852
:103CD0000400ADF80600ADF80800012000E0CDE0DA
:103CE0008DF80D002B466A4604A98148FFF704FFB2
:103CF00005F00200E0B101208DF80A0000208DF8E7
:103D00000B0001208DF80C000020ADF80000ADF88C
:103D10000200ADF80400ADF806000120ADF808007F
:103D20008DF80D002B466A4604A97148FFF7E4FEA2
:103D3000A5E00121022003F019F80121880603F013
:103D40005EF86020079002208DF8200000208DF89A
:103D5000220003208DF8210001208DF8230007A9FF
:103D6000674802F065FD09220521654802F0EBFD78
:103D700009220621624802F0E6FD00243BE004EB44
:103D800044005E4901EB800090ED000AB4EE480A61
:103D9000F1EE10FA2DD100208DF8160001208DF8DB
:103DA000170000208DF818008DF819008DF81A0002
:103DB0008DF81B008DF8126004EB440001EB8000CD
:103DC00000798DF8130004EB440001EB800040798A
:103DD0008DF8140004EB440001EB800080798DF82D
:103DE000150004EB440001EB80000089ADF81000E1
:103DF0000E24601CC4B20E2CC1DB05F00400E0B13F
:103E00000E208DF80A0000208DF80B0001208DF89F
:103E10000C000020ADF80000ADF80200ADF8040081
:103E2000ADF80600ADF8080001208DF80D002B4616
:103E30006A4604A92F48FFF75FFE05F00800E0B1CD
:103E400003208DF80A0000208DF80B0001208DF86A
:103E50000C000020ADF80000ADF80200ADF8040041
:103E6000ADF806000120ADF808008DF80D002B46D6
:103E70006A4604A91F48FFF73FFE00E000BF00BFED
:103E800009B0BDEC028BF0BD10B5044674B9012237
:103E900000219FED1C0A0846FFF796FE0422002130
:103EA0009FED180A0120FFF78FFE4EE0012C0ED186
:103EB00001220021B3EE040A0846FFF785FE042222
:103EC0000021B3EE040A0120FFF77EFE3DE0022C44
:103ED0001AD101220021B2EE040A0846FFF774FE4F
:103EE00004220021B2EE040A0120FFF76DFE2CE04F
:103EF00000640040006800400000024030010020E3
:103F00000004024000004842032C0ED1012200218F
:103F1000B1EE040A0846FFF757FE04220021B1EE75
:103F2000040A0120FFF750FE0FE0042C0DD10122FE
:103F300000219FEDFE0A0846FFF746FE04220021FD
:103F40009FEDFA0A0120FFF73FFE10BD08B5684655
:103F500002F07DFB01221146F54803F008FE3F20E8
:103F60008DF8000004208DF8010000208DF802007B
:103F700001208DF80300684602F069FB012211461A
:103F8000EC4803F0F4FD13208DF8000005208DF8B7
:103F9000010000208DF8020001208DF80300684622
:103FA00002F055FB08BDE449096841F00101E24A0D
:103FB000116050B91146096821F47F411160114622
:103FC000096841F4D05111600CE001280AD1DA49A6
:103FD000096821F47F41D84A11601146096841F40B
:103FE00080711160D449096821F00101D24A116041
:103FF000704710B51421002001F027FECF4908605A
:104000000846006810B100200968086114210020EA
:1040100001F01BFEC94948600846406810B1002005
:10402000496808611421002001F00FFEC4490860AE
:104030000846006810B100200968086114210020BA
:1040400001F003FEBE4948600846406810B10020F8
:10405000496808611421002001F0F7FDB9490860A2
:104060000846006810B1002009680861142100208A
:1040700001F0EBFDB34948600846406810B10020EC
:10408000496808611421002001F0DFFDAE49086095
:104090000846006810B1002009680861142100205A
:1040A00001F0D3FDA94908600846006810B100205E
:1040B0000968086110BD10B500230C782CB90C7884
:1040C00002550C78641C0C7015E005E0C45C944249
:1040D00000D104E05C1CE3B20C789C42F6DC00BF2B
:1040E0000C789C4207D10C781E2C04DA0C7802550F
:1040F0000C78641C0C7010BD70B505460C46207A17
:1041000010B1042828D113E0207AA870607A687072
:10411000A07A287020686860A27A04F10B0105F18A
:10412000080007F0F7F81421204607F094F918E08A
:10413000207AA870607A6870A07A287060686860D9
:10414000A27A04F10B0105F1080007F0E3F814214D
:10415000204607F080F904E01421204607F07BF99F
:1041600000BF00BF687870BD70B586B005460E46CA
:10417000144615B1012D4AD118E000216D4803F015
:104180005EFC10B9002006B070BD01AA002169488C
:1041900003F0D2FB01A92046FFF7AEFF28B9142196
:1041A000204607F058F90020EDE731E00021604893
:1041B00003F045FC08B90220E5E701AA00215C48AC
:1041C00003F0BAFB9DF80D0002281AD101A960483E
:1041D0000068FFF791FF5E4800684068C0F3074041
:1041E0005C49097888420AD15B48006806F00EF9FC
:1041F0005AA006F081FF142101A807F02CF9022033
:10420000C1E701A92046FFF777FF0020BBE700BF09
:1042100000BF2078B7E730B5002100220023B0B9F5
:10422000444C18342468210E424C18342468C4F3DA
:104230000742404C18342468C4F302133D4C183430
:10424000246844F070043B4D18352C6017E00128B9
:1042500015D1374C18342468210E354C1834246895
:10426000C4F30742324C18342468C4F30213304CB0
:104270001834246844F070042D4D18352C6030BD7E
:104280002DE9F04706460D4614461F46DDF820800E
:104290004FF0000906F0CAFE8246354804720CB998
:1042A000056003E0042C01D131484560002030490D
:1042B0004872084680F80A80424639460B3007F0BB
:1042C00029F8504606F0B6FE16B1012E0CD105E0D5
:1042D0002749184803F04AFA814606E02449144861
:1042E00003F044FA814600E000BF00BF4846BDE845
:1042F000F0872DE9FC4105460C4600200190002D79
:1043000063D106F093FE06461A480078A0BB012050
:1043100018490870304606F08DFE2846FFF77BFFEF
:1043200004481830006800F0040026E00000FA425B
:104330000068004000640040006600400401002066
:104340000C010020140100201C010020200100208D
:104350000C0000200800002098000020CAD5B5BD40
:10436000D2BBB8F6D3A6B4F0B0FC0D0A0000000032
:10437000F0060020D801002023E0E8B92078009062
:10438000A27804F1080300206168FFF779FF01AA11
:104390003221FB48006805F0AEFAC7B2042F06D1FF
:1043A00000270020F74908700420BDE8FC810020A8
:1043B000F44908700320F8E70020F2490870022051
:1043C000F3E7304606F036FE3EE0012D3CD106F024
:1043D0002DFE0646EC48007890BB0120EA490870A3
:1043E000304606F027FE2846FFF715FFE74800682D
:1043F00000F00400F8B920780090A27804F10803D6
:1044000001206168FFF73CFF01AA3221E048006803
:1044100005F071FA00F0FF08B8F1040F06D14FF073
:1044200000080020D84908700420BEE70020D649C3
:1044300008700320B9E70020D34908700220B4E7D0
:10444000FFE7304606F0F6FD0120AEE72DE9F0412A
:1044500006460D461446002706F0E8FD8046CD4886
:1044600004720CB9056003E0042C01D1C948456011
:104470000220C8494872404606F0DCFD16B1012E04
:104480000DD105E0C349C44803F070F9074607E0C1
:10449000C049BE48183803F069F9074600E000BF7C
:1044A00000BF3846BDE8F0812DE9F8430446884650
:1044B000914600200090002C37D106F0B7FD05464C
:1044C000B648007868BB0120B4490870284606F059
:1044D000B1FD2046FFF79FFEAF481830006800F09E
:1044E0000400C8B94A4641460020FFF7AFFF6A46BC
:1044F0003221A348006805F0FEF9C6B2042E06D1A9
:1045000000260020A54908700420BDE8F88300209B
:10451000A24908700320F8E70020A0490870022093
:10452000F3E7284606F086FD36E0012C34D106F08C
:104530007DFD05469A48007858BB012098490870CF
:10454000284606F077FD2046FFF765FE8F48006895
:1045500000F00400C0B94A4641460120FFF776FF4B
:104560006A4632218A48006805F0C5F9C7B2042FAF
:1045700005D1002700208A4908700420C5E70020E3
:10458000874908700320C0E7002085490870022091
:10459000BBE7284606F04EFD0120B6E72DE9F047BF
:1045A00081460D460027002400262C46B9F1000F55
:1045B00003D0B9F1010F7CD159E054E02069406883
:1045C000C0F3806000B301283DD106F02FFD824684
:1045D0001421002001F039FB0646504606F02AFD62
:1045E0008EB114223046216906F0D9FE6D48046868
:1045F00000E0246920690028FBD1266130616A4807
:10460000006805F003FF1FE006F010FD824614214C
:10461000002001F01AFB0646504606F00BFD8EB155
:1046200014223046216906F0BAFE6048046800E0B2
:10463000246920690028FBD1266130615C4800684C
:1046400005F0E4FE00E000BF00BF2C462769386992
:10465000206106F0EBFC82463946002001F0E5FAC5
:10466000504606F0E7FC20690028A7D1C1E0BAE077
:1046700020694068C0F30070E0B920698088C0F309
:1046800007204C490978884214D020698088C0F3FB
:10469000072078B12C4627693869206106F0C6FCEE
:1046A00082463946002001F0C0FA504606F0C2FCAE
:1046B00099E09DE020694068C0F307483E480078D3
:1046C000804502D0B8F1FF0F7FD13C484088401CA4
:1046D0003A49488020694068C0F3806000B30128EF
:1046E0003DD106F0A3FC82461421002001F0ADFA72
:1046F0000646504606F09EFC8EB1142230462169D3
:1047000006F04DFE2748446800E02469206900282F
:10471000FBD1266130612A48006805F077FE1FE072
:1047200006F084FC82461421002001F08EFA064631
:10473000504606F07FFC8EB114223046216906F007
:104740002EFE1A48446800E0246920690028FBD145
:10475000266130611B48006805F058FE00E000BF8C
:1047600000BF2C4627693869206106F05FFC82464D
:104770003946002001F059FA504606F05BFC32E061
:10478000A8000020D8010020D901002018680040AE
:10479000AC0000200407002000640040DA01002083
:1047A000DB01002014010020780000200C01002013
:1047B00080000020090000200800002018070020C9
:1047C0007C00002084000020FFE72C462769386920
:1047D000206106F02BFC82463946002001F025FAC4
:1047E000504606F027FC206900287FF441AF00E026
:1047F00000BF00BFBDE8F08730B5039C6060A170CA
:1048000023701568A5605568E56030BD2DE9FC5F33
:1048100005460E461F46DDE90CB4DDF838804FF042
:104820000009CA4615B1012D71D142E006F0FEFB28
:1048300001901421002001F008FA0446019806F0C6
:10484000F9FBA4B3002020615B463A4604213046C0
:104850000094FFF7D1FF18E005230022114610460F
:1048600006F05CFA09F101001FFA80F9C1450CDB82
:1048700006F0DCFB01902146002001F0D6F90198FA
:1048800006F0D8FB0020BDE8FC9F21462846FFF734
:1048900030FD0428E0D106F0C9FB0190214600203C
:1048A00001F0C3F9019806F0C5FB0120EBE7FFE733
:1048B00042E006F0BBFB01901421002001F0C5F995
:1048C0000446019806F0B6FB0CB1002020615B465F
:1048D0003A46042130460094FFF78EFF18E0142377
:1048E00000221146104606F019FA0AF101001FFADB
:1048F00080FAC2450CDB06F099FB019021460020AE
:1049000001F093F9019806F095FB0020BBE711E058
:1049100021462846FFF7EDFC0428E0D106F086FB8F
:1049200001902146002001F080F9019806F082FBF9
:104930000120A8E70020A6E700BF0020A3E710B5EC
:1049400003469C0644EA024444EA012010BD2DE9D6
:10495000FF5F80460D46002700242C46B8F1000F6B
:1049600003D0B8F1010F67D135E030E0206940682D
:10497000C0F3074A20698088C0F3072B20690679B5
:104980005A4651460120FFF7DAFF40EA060920693E
:10499000406820F080602169486064200821CDE9EA
:1049A00000150290206900F10803042249464046A0
:1049B000FFF72CFF27693869206106F037FB039069
:1049C0003946002001F031F9039806F033FB2069E5
:1049D0000028CBD131E02BE02069067920694068BE
:1049E000C0F30740FF2804D140462169FBF748FF88
:1049F00011E020694068C0F3007038B1009532467C
:104A0000494640462369FBF7E8FF04E02A46404652
:104A10002169FBF754FF27693869206106F006FB1E
:104A200003903946002001F000F9039806F002FBDC
:104A300020690028D0D100E000BF00BFBDE8FF9F83
:104A40002DE9F34F81B00C466068C0F30070002878
:104A50003AD094F804A06068C0F30748A088C0F377
:104A600007294A4641460020FFF769FF40EA0A004D
:104A700040F08056606820F080606060042231461B
:104A80000198FFF711FD0546042D05D1E9480CC832
:104A9000E9A006F031FB2FE0032D0DD104223146B1
:104AA0000198FFF701FD8346E248CDF800B00CC83D
:104AB000EBA006F021FB1FE0022D1DD1DD480CC844
:104AC000F6A006F019FB17E06068C0F3007088B923
:104AD000A088C0F30721676861F31F27F9480078B1
:104AE000002101EB0040C619042231460198FFF76E
:104AF000DBFC01E0BDE8FE8F00BFFBE72DE9F041E4
:104B000006460F46002500243C4616B1012E36D13C
:104B100015E010E0EC48006805F078FC256928698C
:104B2000206106F083FA80462946002001F07DF8D6
:104B3000404606F07FFA20690028EBD120E01AE019
:104B400020694068C0F30740FF2804D1304621693E
:104B5000FBF796FE02E02069FBF76BFE25692869EA
:104B6000206106F063FA80462946002001F05DF8D6
:104B7000404606F05FFA20690028E1D100E000BF5E
:104B800000BFBDE8F0812DE9F0410026002500249A
:104B900004F012FB06F04AFA07461421002001F047
:104BA00054F804461CB3384606F044FA2246002165
:104BB0000846FFF7D9FA0646002E0DDDC348056802
:104BC00000E02D6928690028FBD12C612061C048D4
:104BD000006805F01BFC0DE006F028FA07462146A8
:104BE000002001F022F8384606F024FA02E03846A8
:104BF00006F020FA04F0FBFABDE8F0812DE9F0415F
:104C00000026002404F0D8FA06F010FA0746142112
:104C1000002001F01AF80446E4B1384606F00AFA1A
:104C2000224600210120FFF79FFA05466DB9A748EB
:104C3000466800E0366930690028FBD134612061A4
:104C4000A448006805F0E2FB07E02146002000F0E0
:104C5000ECFF02E0384606F0EDF904F0C8FABDE8D2
:104C6000F08170B504F0A8FA01219B4802F0E7FF3B
:104C7000012811D1984808300068C0F340050DB1F3
:104C8000042400E0032421469448006804F0EEFE6A
:104C90000121914803F06DF804F0A9FA70BD70B5D8
:104CA00004F08AFA01218E4802F0C9FF012816D1CA
:104CB0008B4808300068C0F340050DB1042400E0C3
:104CC000032421468748006804F0D0FE8648808887
:104CD000401C854988800121814803F04AF804F08E
:104CE00086FA70BD704718B90021804A11700AE039
:104CF000012803D128217D4A117004E0022802D145
:104D00005F217A4A11707047F0B505AD95E8E01063
:104D1000099C22706370A570E670277184F805C045
:104D2000F0BD704770472DE9F04104460F4600265C
:104D3000002506F07BF980461421002000F085FF55
:104D400005461DB3404606F075F91422394628463B
:104D500006F025FB14B96648066803E0012C01D172
:104D60006448066800E0366930690028FBD1356187
:104D7000286124B96048006805F048FB09E0012C6F
:104D800007D15E48006805F041FB02E0404606F0AE
:104D900051F9BDE8F0817FB504460020039000265C
:104DA0002FE0C8212078CDE90171009004F10803BB
:104DB000042200206168FFF729FD054605B97FBD83
:104DC00003AA4FF4FA714048006805F070FA9DF8A4
:104DD0000C0020B94A48002101808170EFE79DF85E
:104DE0000C000A2808D1701CC6B2032E09DB444807
:104DF000002101808170E2E741480021018081703B
:104E0000DDE7CEE77FB504460020039000269DE055
:104E10004FF4FA712078CDE90171009004F1080394
:104E2000042201206168FFF7F1FC054605B97FBD4A
:104E300068E00000100000203CCAC2CEF14944A343
:104E4000BA256C6C753EB5F7D3C3D3A6B4F0D6A122
:104E5000B7A2CBCDBAAFCAFDB3C9B9A60D0A00003F
:104E60003CCAC2CEF14944A3BA256C6C753EA3A8D6
:104E7000455252A3A9B5F7D3C3D3A6B4F0D6A1B770
:104E8000A2CBCDBAAFCAFDCAA7B0DCA3ACD6D8B707
:104E9000A2B4FAC2EB25640D0A0000003CCAC2CEDF
:104EA000F14944A3BA256C6C753EB5F7D3C3D3A6BC
:104EB000B4F0D6A1B7A2CBCDBAAFCAFDB3C9B9A6DB
:104EC00000000000080000209400002004010020E1
:104ED000700000207400002000640040A800002042
:104EE00000680040AC0000201807002000010020EE
:104EF0001C010020200100209C000020A0000020B8
:104F00002A01002003AA4FF4FA713B48006805F01B
:104F1000CEF99DF80C0020B938480021018081703D
:104F20007FBD9DF80C000A280BD1701CC6B2032E61
:104F30000CDB324800210180817031A006F0DCF8E2
:104F4000EEE72E48002101808170E9E760E72DE956
:104F5000E043814694F804806068C0F30746A08867
:104F6000C0F307273A4631460020FFF7E8FC40EA45
:104F70000805606820F0806060602846BDE8E08336
:104F8000FEB504466068C0F3007088B12046FFF7A4
:104F9000DEFF40F080556421207804F108030422EC
:104FA000CDE90181009029460120FFF72FFC21E087
:104FB0006068C0F30070E0B9002018490870A0884C
:104FC000C0F30721666861F31F26154800780021A9
:104FD00001EB004085196421207804F108030422C4
:104FE000CDE90181009029460120FFF70FFC07461B
:104FF00000E0FEBD00BFFCE7980000202D0100206E
:10500000C4BFB1EAD4DAD6D8CAD4BAF3C3BBD3D0BA
:10501000BBD8B8B4A3A10D0A00000000090200200B
:10502000080000201CB50121202001F09FFE4FF454
:105030008070009001208DF8040000208DF806009B
:1050400003208DF8050001208DF807000102224899
:1050500001F06AFC1CBD10B52048007820B9002082
:105060001F4908801F4908701D480088D0B14FF4BF
:105070008071194801F058FCC823002211461046DF
:1050800005F04CFE4FF48071134801F04FFC3223C1
:1050900000221146104605F041FE11480088401ECE
:1050A0000F4908800F480078012814D101020A48EE
:1050B00001F03AFCC82300221146104605F02EFEEE
:1050C0004FF48071044801F031FC64230022114642
:1050D000104605F023FE10BD00140240DF01002041
:1050E000DC010020DE0100201CB50121202001F0A0
:1050F0003DFE0121402001F039FE4FF46060009038
:1051000001208DF8040000208DF8060003208DF8A2
:10511000050001208DF807006946E24801F088FB90
:105120004FF44070009001208DF8040000208DF8AD
:10513000060003208DF8050001208DF80700694660
:10514000D94801F075FB4FF46061D64801F0EEFBE1
:105150004FF44071D44801F0E9FB1CBD10B5044682
:10516000662C04D0672C08D06F2C21D10BE04FF4B3
:105170000071CC4801F0D8FB1BE04FF48061C948B6
:1051800001F0D2FB15E04FF48061C64801F0CCFB82
:105190004FF40061C34801F0C7FB4FF48071C2486F
:1051A00001F0C2FB4FF40071BF4801F0BDFB00E00D
:1051B00000BF00BF10BD2DE9F04107460C46257920
:1051C0006679A7F1650005287DD2DFE800F0033796
:1051D0006BA1D500257917E04FF40071B14801F0BB
:1051E000A5FB238800221146104605F097FD4FF4D9
:1051F0000071AC4801F098FB63880022114610460C
:1052000005F08CFD681EC5B2002DE5DC667912E064
:105210004FF40071A34801F087FB23880022114658
:10522000104605F07BFD638800221146104605F00C
:1052300075FD701EC6B2002EEADCD2E0257917E0BB
:105240004FF48061974801F071FB238800221146DA
:10525000104605F063FD4FF48061924801F064FB55
:10526000638800221146104605F058FD681EC5B23D
:10527000002DE5DC667912E04FF48061894801F089
:1052800053FB238800221146104605F047FD638832
:1052900000221146104605F041FD701EC6B2002ED8
:1052A000EADC9EE0257919E04FF400617D4801F0C9
:1052B0003DFB238800221146104605F02FFD4FF4D8
:1052C0000061784800E08BE001F02EFB638800224B
:1052D0001146104605F022FD681EC5B2002DE3DC24
:1052E000667912E04FF400616E4801F01DFB2388DF
:1052F00000221146104605F011FD63880022114678
:10530000104605F00BFD701EC6B2002EEADC68E008
:10531000257917E04FF48071634801F007FB23887B
:1053200000221146104605F0F9FC4FF480715E48EA
:1053300001F0FAFA638800221146104605F0EEFCEF
:10534000681EC5B2002DE5DC667912E04FF480716D
:10535000554801F0E9FA238800221146104605F06D
:10536000DDFC638800221146104605F0D7FC701E54
:10537000C6B2002EEADC34E0257917E04FF4007164
:10538000494801F0D3FA238800221146104605F05F
:10539000C5FC4FF40071444801F0C6FA638800224E
:1053A0001146104605F0BAFC681EC5B2002DE5DCBA
:1053B000667912E04FF400713B4801F0B5FA23889A
:1053C00000221146104605F0A9FC63880022114610
:1053D000104605F0A3FC701EC6B2002EEADC00E009
:1053E00000BF00BFBDE8F08110B540E02F48008845
:1053F00048B14FF400712B4801F098FA2B4800880F
:10540000401E2A4908802948408848B14FF48061ED
:10541000244801F08BFA25484088401E23494880E3
:105420002248808848B14FF400611E4801F07EFA9E
:105430001E488088401E1D4988801C48C08848B18D
:105440004FF48071184801F071FA1848C088401E66
:105450001649C8801548008948B14FF400711248B8
:1054600001F064FA11480089401E104908810F4874
:1054700000880E49498808430C49898808430B492C
:10548000C98808430949098908430028AED13C234B
:1054900000221146104605F041FC6F20FFF75EFE2A
:1054A00010BD000000140240001802401807002040
:1054B00010B5044600BF0221F74803F00FFD002895
:1054C000F9D02146F44803F0C0FC00BF0121F248A6
:1054D00003F004FD0028F9D0EF4803F0B3FCC0B29C
:1054E00010BD00B587B00121022001F03FFC012171
:1054F000080301F095FC3820059002208DF8180073
:1055000000208DF81A0003208DF8190001208DF875
:105510001B0005A9E14801F08BF905220321DF48B2
:1055200001F011FA05220421DC4801F00CFA0522F1
:105530001146DA4801F007FA0121080301F0C5FC21
:1055400000214FF4805001F0C0FC0020ADF80000B5
:105550004FF48270ADF802000020ADF80400022084
:10556000ADF806000120ADF808004002ADF80A00D1
:105570003820ADF80C000020ADF80E000720ADF883
:1055800010006946C44803F0E5FA0121C24803F05F
:10559000DBFBFF20FFF78CFF07B000BD10B5044612
:1055A000BD4800884FF6C7710840BB4908800846CF
:1055B0000088204308800121B74803F0C5FB10BDD7
:1055C00010B5044600BF0221B54803F087FC00284F
:1055D000F9D02146B24803F038FC00BF0121B048A1
:1055E00003F07CFC0028F9D0AD4803F02BFCC0B2DE
:1055F00010BD00B587B00121022001F0B7FB0121E9
:10560000880301F0FCFB4FF46040059002208DF808
:10561000180000208DF81A0003208DF819000120D1
:105620008DF81B0005A99D4801F002F905220D2106
:105630009A4801F088F905220E21984801F083F973
:1056400005220F21954801F07EF90121880301F020
:105650002BFC00214FF4804001F026FC0020ADF827
:1056600000004FF48270ADF802000020ADF8040095
:105670000220ADF806000120ADF808004002ADF8A8
:105680000A003820ADF80C000020ADF80E0007200D
:10569000ADF810006946824803F05CFA01218048A9
:1056A00003F052FBFF20FFF78BFF07B000BD10B5E2
:1056B00004467B4800884FF6C77108407849088047
:1056C00008460088204308800121754803F03CFB10
:1056D00010BD10B500240020724908609020FFF72B
:1056E0006FFF0020FFF76CFF0020FFF769FF00202D
:1056F000FFF766FFFF20FFF763FF44EA0024FF2067
:10570000FFF75EFF044301206749C1F8B00220465D
:1057100010BD1CB50121022001F028FB0121402011
:1057200001F024FB4FF48050009001208DF804001C
:1057300000208DF8060003208DF8050001208DF86B
:1057400007006946554801F073F8802000906946CB
:10575000564801F06DF88021544801F0E5F8012029
:1057600050490860FFF745FF0820FFF7A0FFFFF74B
:10577000B0FF4F4908801CBD10B5002400204949E6
:1057800008600520FFF71CFFFF20FFF719FF044604
:1057900001204549C1F8B002204610BD10B50446AD
:1057A0000020404908600120FFF70AFF2046FFF76C
:1057B00007FF01203C49C1F8B00210BD10B5002020
:1057C000384908600620FFF7FBFE01203649C1F882
:1057D000B00210BD10B50020324908600420FFF768
:1057E000EFFE01203049C1F8B00210BD2DE9F041B3
:1057F00006460C46174600202A4908600320FFF79A
:10580000DFFEC4F30740FFF7DBFEC4F30720FFF71A
:10581000D7FEE0B2FFF7D4FE002505E0FF20FFF73A
:10582000CFFE7055681C85B2BD42F7DB01201D49D3
:105830000860BDE8F08110B500BFFFF79DFF00F0E4
:1058400001000028F9D110BD2DE9F04106460C46B3
:105850001746FFF7B3FF0020124908600220FFF748
:10586000AFFEC4F30740FFF7ABFEC4F30720FFF71A
:10587000A7FEE0B2FFF7A4FE002504E0705DFFF78D
:105880009FFE681C85B2BD42F8DB01200549086017
:10589000FFF7D1FFBDE8F081003001400004024075
:1058A00000380040B0824042008040420018024070
:1058B000E00100202DE9F04107460E461446F0B203
:1058C000C0F58075AC4200DC254612E02A46314620
:1058D0003846FFF7B9FFAC4200D10BE02F442E440D
:1058E000601B84B2B4F5807F02DD4FF4807500E068
:1058F0002546EBE700BFBDE8F08110B50446240360
:10590000FFF75CFFFFF797FF002060490860202049
:10591000FFF756FEC4F30740FFF752FEC4F307201B
:10592000FFF74EFEE0B2FFF74BFE01205849C1F8E9
:10593000B002FFF780FF10BD2DE9F05F81460F46F2
:105940001646DFF850B14FEA1738C7F30B0ACAF50D
:105950008054A64200DC344644E04FEA08314FF45C
:1059600080525846FFF742FF002508E00AEB050089
:105970001BF80000FF2800D003E0681C85B2A54298
:10598000F4DB00BFA54216DA4046FFF7B6FF00255C
:1059900007E019F8050005EB0A010BF80100681C87
:1059A00085B2A542F5DB4FEA08314FF480525846E4
:1059B000FFF780FF04E0224639464846FFF77AFFAA
:1059C000A64200D10FE008F101084FF0000AA144FF
:1059D0002744301B86B2B6F5805F02DD4FF4805459
:1059E00000E03446B9E700BFBDE8F09F10B5FFF70F
:1059F000E5FEFFF720FF002024490860C720FFF7DD
:105A0000DFFD01202249C1F8B002FFF714FF10BDED
:105A100010B500201D490860B920FFF7D1FD012015
:105A20001B49C1F8B002032000F0ECFC10BD10B51A
:105A3000002016490860AB20FFF7C2FD0120144981
:105A4000C1F8B002032000F0DDFC10BD30B5024605
:105A50000B46002100244FF6FF7000BF12E0555C9A
:105A6000684000240AE000F0010525B14AF2010572
:105A700085EA600000E04010651CACB2082CF2DB47
:105A80004D1CA9B29942EADB30BD0000B082404211
:105A900000804042220F002070B503460C4603E010
:105AA00014F8015B03F8015B151EA2F10102F7D1A6
:105AB00070BD30B5034601E003F8011B141EA2F1CE
:105AC0000102F9D130BD10B504467A4951F82410CD
:105AD0004A00794951F824000021FFF7EAFF77498D
