:020000040800F2
:10000000304300206D610008B10B0008B30B0008FD
:10001000B70B0008BB0B0008BF0B00080000000076
:10002000000000000000000000000000C30B0008FA
:10003000C50B000800000000E5AB0008095F0008E0
:1000400087610008876100088761000887610008F0
:1000500087610008876100088761000887610008E0
:1000600087610008876100088761000887610008D0
:1000700087610008876100088761000887610008C0
:10008000876100088761000887610008D54800087B
:10009000F947000887610008876100088761000848
:1000A000F3360008BB360008876100088761000846
:1000B000975B000821370008876100088761000806
:1000C0008761000887610008876100088761000870
:1000D00087610008D760000887610008955A00080A
:1000E0008761000887610008876100088761000850
:1000F0008761000887610008876100088761000840
:10010000876100088761000887610008876100082F
:10011000095B0008876100086F36000887610008E6
:10012000876100088761000887610008876100080F
:10013000876100088761000887610008114900088D
:100140006F48000887610008876100088761000820
:1001500087610008876100088761000887610008DF
:1001600087610008876100088761000887610008CF
:1001700087610008876100088761000887610008BF
:10018000876100088761000800F002F800F05CF861
:100190000AA090E8000C82448344AAF10107DA45E2
:1001A00001D100F051F8AFF2090EBAE80F0013F0D8
:1001B000010F18BFFB1A43F00103184728B00000D5
:1001C00048B000000A444FF0000C10F8013B13F057
:1001D000070408BF10F8014B1D1108BF10F8015BA0
:1001E000641E05D010F8016B641E01F8016BF9D193
:1001F00013F0080F1EBF10F8014BAD1C0C1B09D1EA
:100200006D1E58BF01F801CBFAD505E014F8016B5B
:1002100001F8016B6D1EF9D59142D6D370470000ED
:100220000023002400250026103A28BF78C1FBD8FF
:10023000520728BF30C148BF0B6070471FB50AF096
:1002400039FE1FBD10B510BD0AF001FE1146FFF7C3
:10025000F5FF00F01BF80AF01FFE03B4FFF7F2FFF2
:1002600003BC05F0D7FE000070B50446002500BFB2
:1002700000F093F90AF08EFC054600F003FA042022
:100280000AF007FA28460AF089FC70BD10B54FF451
:10029000407005F08BFF00F011F800F001F908F054
:1002A0002BFD0423044A0021AFF2430009F078FF3C
:1002B00008F044FE002010BDD406002010B5012037
:1002C000FE490870FE480068FE4908604720FE4964
:1002D00008700620486005208860FA480068C860F9
:1002E000FA48086148610220F9490870FF20F9497D
:1002F00008704FF6FF728021F7480AF053FD4FF661
:10030000FF728021F5480AF04DFDF548C07920F0D4
:1003100080008030F249C87110BD2DE9F0410AF02B
:1003200039FC80464FF48051002005F074FA0646EF
:1003300040460AF033FC16B90020BDE8F0810AF00F
:1003400029FC80464FF48051002005F064FA0746EE
:1003500040460AF023FC5FB90AF01CFC8046314697
:10036000002005F048FA40460AF018FC0020E4E7B7
:100370004FF480520021304605F01EF8002505E0BC
:10038000705DFF2800D004E0681C85B2B5F5805F81
:10039000F6DB00BFB5F5805F01D10020CDE700247A
:1003A00014E04FF480520021304605F005F84FF478
:1003B0008051304605F030F900B909E00A230022E7
:1003C000114610460AF05EFA601CC4B2032CE8DB4A
:1003D00000BF032C22DA4FF480521146384604F055
:1003E000EBFF4FF48052394630460AF038FC28B112
:1003F0004FF480521146304605F084F80AF0CAFBEB
:1004000080463146002005F0F6F93946002005F017
:10041000F2F940460AF0C2FB01208EE7002414E006
:100420004FF480521146384604F0C6FF4FF4805115
:10043000384605F0F1F800B909E00A230022114618
:1004400010460AF01FFA601CC4B2032CE8DB00BFA0
:10045000032C15DA4FF480520021384605F052F88B
:100460000AF098FB80463146002005F0C4F9394671
:10047000002005F0C0F940460AF090FB01205CE73F
:100480000AF088FB80463146002005F0B4F9394671
:10049000002005F0B0F940460AF080FB00204CE750
:1004A00010B5A82005F03CFD4FF47A7005F088FDEA
:1004B00004F098FB04F0FEFB052001F0A9FCA72145
:1004C0004FF6FF7002F01DFE002140F2A31002F073
:1004D0003AFF40F2E731532005F02CFBA7214FF6FD
:1004E000FF7002F067FE53214FF6FF7002F0BBFE73
:1004F00005F09CFB002005F0CCF8022005F0C9F8BF
:1005000004F0EDFEFFF709FF02F052FD03F0CBFB14
:1005100002F01CFB01220021B3EE040A084603F09E
:10052000ADF9042200219FED6F0A012003F0A6F926
:1005300003F066FB02F037FF00F0A6FE0122510334
:10054000694804F039FF012242F20401674804F0CF
:1005500033FF01220221664807F060FF0121644851
:1005600007F044FB0121634806F0F7FB4FF480716C
:10057000614805F08FFF1421002005F04CF95F4918
:1005800008601421002005F046F95D490860142137
:100590005B4800680AF030FC10BD10B5002009F07F
:1005A000B4FB58490860002009F0AFFB56490860C9
:1005B000002009F0AAFB55490860002009F0A5FBBE
:1005C00053490860002009F0A0FB52490860002050
:1005D00009F09BFB50490860002009F096FB4F4949
:1005E0000860002009F091FB4D490860002009F0E7
:1005F0008CFB4C490860002009F087FB4A490860E1
:10060000002009F082FB49490860002009F07DFBC9
:1006100047490860002009F078FB4649086000203F
:1006200009F073FB44490860002009F06EFB434960
:100630000860002009F069FB41490860002009F0CA
:1006400064FB40490860002009F05FFB3E490860F8
:10065000002009F05AFB3D490860002008F079FEAF
:100660003B490860002008F074FE3A490860002009
:1006700008F06FFE38490860002008F06AFE37492C
:10068000086010BD10B51523354A0021354809F022
:1006900087FD0523344A0021344809F081FD0623F3
:1006A000334A0021334809F07BFD0723324A0021F9
:1006B000324809F075FD0E23314A63E00000002046
:1006C000107AFF1F04000020880300205C1634010C
:1006D000090000204D0000208802002008030020AF
:1006E000A400002033330542E10000200800002070
:1006F0000040014000480040001402400C0000206F
:100700004800002064000020680000206C000020E9
:100710007000002074000020780000207C00002081
:100720008000002084000020880000208C00002031
:100730009000002094000020D8000020DC00002061
:100740005000002054000020D0000020580000205D
:10075000980000209C0000205C0000206000002029
:10076000FC5C00104D200008FC640010CB1E00084B
:10077000FC6C0010531F0008FC7400100F1F0008D1
:10078000FC8400100021EE4809F00AFD1223ED4A16
:100790000021ED4809F004FD0923EC4A0021EC4852
:1007A00009F0FEFC1123EB4A0021EB4809F0F8FCAC
:1007B0001023EA4A0021EA4809F0F2FC1323E94A2F
:1007C0000021E94809F0ECFC0D23E84A0021E84843
:1007D00009F0E6FC10BD70B504462579042D16D04D
:1007E00004DC012D07D0032D1AD108E0052D0AD015
:1007F000272D15D110E0204600F04AFB10E02046DE
:1008000000F08AFB0CE0204600F0E6FA08E0214602
:10081000012003F063FF03E0204600F0CAFC00BFA4
:1008200000BF70BD70B506460C462579102D06D068
:10083000112D0CD0122D06D0132D10D10BE0204617
:1008400000F0CBFB0BE0204600F062FC07E0204606
:1008500000F00EFC03E0204600F083FC00BF00BF68
:1008600070BD2DE9F04781460C469246A088C0F342
:100870000727267917B1022F7ED113E0202E02D050
:10088000222E0DD104E0012000F046F900F049F9D4
:100890002146012003F022FF204602F0BEFA00BFED
:1008A00000BF69E0202E23D006DC102E3CD0112E94
:1008B00016D0122E5ED13FE0222E04D0FB2E50D057
:1008C000FC2E57D140E00121002004F0A4FF054692
:1008D000207A28702946A748006808F07BFE49E086
:1008E0002146012003F0FAFE204602F096FA41E08C
:1008F0002146012003F0F2FE142221469E480068A2
:100900000AF0ADF900F0FF08B8F1000F0BD000209D
:100910009A49C87014222146974800680AF010FAD4
:10092000204602F07AFA25E02146012003F0D6FEA7
:10093000204602F072FA1DE02146012003F0CEFEAF
:10094000204602F06AFA15E02146012003F0C6FEB7
:100950008B48C079C0F3400010B10020894908706D
:1009600008E02146012003F0B9FE8748006809F03D
:1009700001FB00BF00BF00BF00BFBDE8F0872DE94D
:10098000F05F834616461C46DDF8289037467C48C3
:10099000007801287ED1122F68D006DC012F09D003
:1009A000022F78D0102F77D10DE0142F75D0FF2FA4
:1009B000F9D103E0204600F06BFA9FE0012000F03F
:1009C000ABF800F0AEF84FF0000800256F4805685E
:1009D0006F48D0E900305A1C40F100006C49C1E971
:1009E00000202146012003F079FEA088C0F30720F3
:1009F00068490978884238D00AF0CCF8824600204D
:100A00005E490870A088000A624908701CE02869E5
:100A10008078C0B928690078A188C1F3072188428D
:100A200011D1606829698860207A2969C870607A64
:100A30002969087100202969487002202969887095
:100A40004FF0010803E02D6928690028DFD100BFBD
:100A500050460AF0A3F8B8F1000F03D1204602F087
:100A6000DCF902E04FF0000848E047E021460120B1
:100A700003F034FEA088C0F3072047490978884274
:100A800015D00AF087F8824600203C494870A088BB
:100A9000000A03E033E028E02FE009E03E49087057
:100AA00050460AF07BF83D48006809F063FA25E0FB
:100AB0002146012003F012FEA088C0F30720384928
:100AC0000978884210D00AF065F8824600202B4948
:100AD0008870A088000A3249087050460AF05EF813
:100AE0003048006809F046FA08E0207A2449087086
:100AF000607A4870A07A887000E000BF0AE0204861
:100B0000007838B9012F03D1204600F0C1F900E088
:100B100000BF00BFBDE8F09F00F0010181F3138822
:100B20007047BFF34F8F2048006800F4E0601F4912
:100B30000843001D1C490860BFF34F8F00BFFEE74C
:100B4000C51F0008FC7C00100F210008FC8C001061
:100B500001280008FC9C001085280008FCA4001057
:100B6000E7290008FCAC0010952A0008FC9400104E
:100B7000CD2700086000002048000020430000202E
:100B8000A40000200000002058000020D400002015
:100B900010000020400000204100002050000020F4
:100BA00042000020540000200CED00E00000FA0597
:100BB000704700BFFEE700BFFEE700BFFEE700BFD3
:100BC000FEE77047704700000CB5002001900090D0
:100BD0007648006840F480307449086000BF73486C
:100BE000006800F4003000900198401C01900098CB
:100BF00018B90198B0F5A04FF1D16C48006800F425
:100C0000003010B10120009001E000200090009819
:100C1000012846D165484030006840F08050634963
:100C2000403108606248006840F440406049086014
:100C30005E48083000685D49083108600846006871
:100C400040F4004008600846006840F4A050086086
:100C50005848091F0860081F006840F08070091F8D
:100C6000086000BF5148006800F000700028F9D00B
:100C700040F20570504908604C480830006820F088
:100C800003004A49083108600846006840F0020045
:100C9000086000BF45480830006800F00C000828D4
:100CA000F8D10CBD10B54548006840F470004349C8
:100CB00008603E48006840F001003C4908600020A0
:100CC0003A4908310860394800683D4908403749C9
:100CD00008603C48091D0860081F006820F4802057
:100CE000091F0860002031490C310860FFF76CFFD4
:100CF0004FF0006031498039086010BD70B50020A8
:100D00000022022300240221284D08352D6805F019
:100D10000C0020B1042806D0082834D107E02A4D61
:100D20002A4E356033E02A4D284E35602FE01F4DA6
:100D30002D1D2D68C5F380541C4D2D1D2D6805F00B
:100D40003F0154B1224DB5FBF1F5184E361D366802
:100D5000C6F3881605FB06F209E01B4DB5FBF1F55D
:100D6000124E361D3668C6F3881605FB06F20F4D87
:100D70002D1D2D68C5F301456D1C6B00B2FBF3F50D
:100D8000124E356003E0104D104E356000BF00BFBD
:100D9000064D08352D68C5F303150E4E705D0B4DDD
:100DA0002D68C540094E356070BD00000038024016
:100DB0000070004008544007003C024088ED00E00D
:100DC000FFFFF6FE103000240024F400B0000020E5
:100DD00000127A00B400002070B5054609F0DAFE72
:100DE00006461421002004F016FD0446002C41D0D4
:100DF000304609F0D3FE14222946204609F0A0FF10
:100E00000020A060E060FE480068A060FC494968DE
:100E1000E16008202070204603F07EFEF8488068DC
:100E2000A060F749C968E16008202070204603F0FF
:100E300073FEF3480069A060F1494969E160082048
:100E40002070204603F068FEED488069A060EC4900
:100E5000C969E16008202070204603F05DFE09F0BA
:100E600099FE06462146002004F0C5FC304609F0F4
:100E700095FE0CE00320E3498870E1484068401C7F
:100E8000DF4948604FF40071DF4805F003FB70BD97
:100E900070B5054609F07EFE06461421002004F0D8
:100EA000BAFC0446002C2ED0304609F077FE1422FE
:100EB0002946204609F044FF0020A060E060082099
:100EC0002070D04800782072CE48417861728178D5
:100ED000A1720179E172C1792173017A617300898C
:100EE0000112A173C748C179E173204603F014FED3
:100EF00009F050FE06462146002004F07CFC3046F6
:100F000009F04CFE07E00320BE498870BC484068E9
:100F1000401CBB49486070BD2DE9F047804609F090
:100F200039FE81461421002004F075FC0446002C93
:100F300044D0484609F032FE14224146204609F0CA
:100F4000FFFE0020A060E06008202070002728E05D
:100F5000002622E0002519E0AC4800EB471005EB25
:100F6000860110F8111004F1080000F81510A748C8
:100F700000EB471005EB860130F811000212680003
:100F8000401C04F108010A54681CC5B2042DE3DBBF
:100F9000204603F0C1FD701CC6B2012EDADB781CBE
:100FA000C7B2042FD4DB09F0F5FD814621460020AD
:100FB00004F021FC484609F0F1FD0CE003209149C2
:100FC00088708F484068401C8D4948604FF400711C
:100FD0008D4805F05FFABDE8F08770B5054609F069
:100FE000D9FD06461421002004F015FC0446002C0F
:100FF00030D0304609F0D2FD1421204609F0FCFE25
:1010000014222946204609F09BFE0020A060E060E3
:10101000082020707E48007820727D480088010AF0
:1010200061727B480068010CA17279480068010E6A
:10103000E172784801782173204603F06DFD09F0D4
:10104000A9FD06462146002004F0D5FB304609F0F4
:10105000A5FD0CE003206B49887069484068401C7E
:10106000674948604FF40071674805F013FA70BD96
:101070002DE9F041054609F08DFD074614210020B9
:1010800004F0C9FB04469CB3384609F087FD1421DF
:10109000204609F0B1FE14222946204609F050FEF0
:1010A000E07A0106A07A01EB0041607A01EB0020B2
:1010B000217A46185648006886420BD009F06AFD2E
:1010C00007462146002004F096FB384609F066FDED
:1010D000BDE8F081207B4F49087009F05BFD0746B1
:1010E0002146002004F087FB384609F057FD0DE04B
:1010F000FFE703204349887041484068401C40494D
:1011000048604FF40071404805F0C4F900BFDFE7C4
:1011100070B5054609F03EFD06461421002004F096
:101120007AFB0446E4B1304609F038FD1422294622
:10113000204609F005FE0020A060E060012020703C
:10114000354800782072204603F0E6FC09F022FDC5
:1011500006462146002004F04EFB304609F01EFDF5
:1011600070BD70B5054609F015FD06461421002036
:1011700004F051FB0446DCB1304609F00FFD1421A8
:10118000204609F039FE14222946204609F0D8FDF0
:101190000020A060E060207A1F49087009F0FAFC86
:1011A00006462146002004F026FB304609F0F6FCF6
:1011B00070BD70B5054609F0EDFC0646142100200F
:1011C00004F029FB0446002C53D0304609F0E6FC1D
:1011D0001421204609F010FE14222946204609F069
:1011E000AFFD0020A060E0600C48007820720B4941
:1011F0004968C4F809100021A4F80D10E1730FE04C
:1012000020000020A40000200014024088020020DA
:1012100004000020080000204D000020880300206A
:1012200008202070204603F077FC0020A060E060DA
:10123000FE49D1E90201C4E90201082020702046DC
:1012400003F06AFC0020A060E060F849D1E90401E5
:10125000C4E9020108202070204603F05DFC09F07B
:1012600099FC06462146002004F0C5FA304609F0F4
:1012700095FC70BD01460868ED4A10601046006894
:10128000704702461160704710B50021002200200F
:1012900016E0E84B03EB411333F810304FF6FF74C0
:1012A000A3420BD0E34B03EB411333F810309342CE
:1012B00004DDE04B03EB411333F81020431CD8B29C
:1012C0001028E6DBDC4B1A804FF6FF72002016E098
:1012D000D84B03EB411333F810304FF6FF74A342A1
:1012E0000BD0D44B03EB411333F81030934204DAA4
:1012F000D04B03EB411333F81020431CD8B2102815
:10130000E6DBCE4B1A8010BD38B9CD4A928A012354
:101310008B409A43CA4B9A821EE0012807D1C84AE3
:10132000D28A01238B409A43C54BDA8214E002280B
:1013300007D1C34A128B01238B409A43C04B1A83B7
:101340000AE0032807D1BE4A538B01228A40934307
:10135000BB4A538300E0704700BFFCE738B9B84A86
:10136000928A01238B401A43B54B9A821FE00128D1
:1013700007D1B34AD28A01238B401A43B04BDA8299
:1013800015E0022807D1AE4A128B01238B401A4385
:10139000AB4B1A830BE0032808D1A94A538B0122D7
:1013A0008A4013439AB2A64B5A8300E0704700BFAD
:1013B000FCE72DE9F84F4FF00008C146A148D0F8EE
:1013C00000809F48C08800285ED09D48C7881F2F96
:1013D00018D19D480078012805D11F220121142031
:1013E00002F069F804E01F220021142002F063F8E3
:1013F0006A4600219548006808F00DFD00209049DC
:10140000C88041E007F11F00B8B98F48007828B9BB
:101410001F220121142002F04EF804E01F220021B7
:10142000142002F048F86A4600218848006808F055
:10143000F2FC00208249C88026E009F0ABFB82461E
:101440001421002004F0E7F90546EDB1504609F0FB
:10145000A5FB1421284609F0CFFC7D4868602F7257
:10146000390A697200202861284601F0D6FC002064
:101470007349C88009F08EFB82462946002004F09B
:10148000BAF9504609F08AFB6D4800894FF6FF71A2
:1014900088422CD009F07EFB82461421002004F003
:1014A000BAF90546504609F079FB05B314212846E0
:1014B00009F0A2FC6648801E68606148007A2872C4
:1014C0005F4800890112697200202861284601F0F6
:1014D000A4FC4FF6FF705A49088109F05BFB824675
:1014E0002946002004F087F9504609F057FB54487C
:1014F00040894FF6FF71884225D009F04BFB8246A8
:101500001421002004F087F90546E5B1504609F0A2
:1015100045FB1421284609F06FFC4D48401E6860C9
:1015200000202861284601F078FC4FF6FF704449FE
:10153000488109F02FFB82462946002004F05BF920
:10154000504609F02BFB3E48808978B94148C07964
:10155000C0F3400018B940480078012802D10020AB
:101560003E4908704FF6FF703549888134488089BC
:10157000012826D109E0D8F81090D9F81000C8F851
:1015800010004946002004F036F9D8F81000002871
:10159000F1D12C48D0F800802E48C079C0F340002B
:1015A00018B92D480078012802D100202B49087075
:1015B0004FF6FF702249888129480088C01C2849BD
:1015C00008801F488089022812D1C102254804F0F2
:1015D0005FFF642300221146104609F053F94FF4CF
:1015E0008051204804F056FF4FF6FF70144988815F
:1015F00013488089032806D101201B4908704FF643
:10160000FF700F4988810E488089042809D1174846
:101610000078C0F10100154908704FF6FF700849C5
:10162000888107488089052829D121E08803002086
:10163000C400002088020020180000201A000020AA
:10164000F4010020D4000020E1000020DC00002094
:101650001202FE04A40000201D0000200000002053
:10166000C4010020000802400A000020C701002039
:101670000020FD4908704FF6FF70FC498881FB4847
:101680008089062873D1FA48007800286BD0F84882
:101690000078022867D0F6480078032847D1012156
:1016A000880605F060F9962300221146104609F0DD
:1016B000E9F809F06FFA82461421002004F0ABF833
:1016C0000446504609F06AFA1421204609F094FBBA
:1016D00000202070606820F0FF006060606820F4E7
:1016E0007F406060606820F47F006060606820F088
:1016F00080706060606820F000706060606820F05A
:1017000080606060606820F000606060606820F069
:1017100080506060204603F0FFF909F03BFA8246F2
:101720002146002004F067F8504609F037FAD04807
:101730000078022812D009F02DFA824604210020F8
:1017400004F069F80646504609F028FA36B101203F
:1017500030603146C748006807F03CFF4FF6FF7025
:10176000C249888103E04FF6FF70C0498881BF48B5
:101770008089072873D1BE48007801286BD0BC4807
:101780000078022867D0BA480078032847D10121A1
:10179000880605F0E8F8962300221146104609F065
:1017A00071F809F0F7F982461421002004F033F8AB
:1017B0000446504609F0F2F91421204609F01CFBBA
:1017C00000202070606820F0FF006060606820F4F6
:1017D0007F406060606820F47F006060606820F097
:1017E00080706060606820F000706060606820F069
:1017F00080606060606820F000606060606820F079
:1018000080506060204603F087F909F0C3F98246F2
:101810002146002003F0EFFF504609F0BFF994483D
:101820000078022812D009F0B5F982460421002080
:1018300003F0F1FF0646504609F0B0F936B1022038
:10184000306031468B48006807F0C4FE4FF6FF70E9
:101850008649888103E04FF6FF7084498881834878
:101860008089082827D18248007803281FD0804823
:101870000078022813D009F08DF982460421002057
:1018800003F0C9FF0646504609F088F956B1042016
:10189000306031467748006807F09CFE02E0032084
:1018A000734908704FF6FF707049888103E04FF666
:1018B000FF706E4988816D48C08920BB09F06AF9C4
:1018C00082461421002003F0A6FF0546DDB15046F4
:1018D00009F064F91421284609F08EFA6648686018
:1018E00000202861284601F098FA4FF6FF705F4902
:1018F000C88109F04FF982462946002003F07BFF9A
:10190000504609F04BF95948C089012805D101F02A
:10191000E7FB4FF6FF705549C8815448C08902283B
:1019200006D1002001F0DCFB4FF6FF704F49C88163
:101930004E48008A4FF6FF7188423FD04B48008ADC
:1019400000124E4901EB40104849097C30F8110063
:101950004FF6FF71884216D1454801894348008AF5
:101960000012464A02EB4010404A127C20F8121046
:101970003E48008A3E4988803C4A117C128A1012F7
:10198000FFF7ECFC11E04FF6FF713848008A0012B7
:101990003A4A02EB4010354A127C20F81210334AC2
:1019A000117C128A1012FFF7AFFC4FF6FF702F491F
:1019B000088233480088401C314908802B48408AFF
:1019C00001280FD180222F492C4809F074F900F02A
:1019D000A5FF4FF6FF702549488229480088401C22
:1019E000274908802148408A022810D14FF6FF720B
:1019F0008021224809F0D6F900F090FF4FF6FF70E1
:101A00001A4948821E480088401C1D490880174812
:101A1000408A98B9802219491A4809F04CF901F016
:101A2000EFFA4FF6FF701149488215480088401CB4
:101A30001349088000F072FFFFF726FC0B48808CEA
:101A4000D8B30A48808C012822D14FF4FA720E488C
:101A50000178C82001F02FFD6A464FF47A710B48D7
:101A6000006808F0D8F925E00A000020F401002001
:101A7000A40000205C0000202202FE0408030020D5
:101A8000C401002088020020E3000020DC000020C8
:101A9000F648808C02280DD14FF4FA72F448017890
:101AA000C82001F008FD6A464FF47A71F1480068D9
:101AB00008F0B1F90020ED498884EC48808D4FF69C
:101AC000FF71884213D0E94890F82C00EA49087069
:101AD000012242F20401E84803F014FD4FF6FF70C2
:101AE000E2498885E5480088401CE4490880BDE853
:101AF000F88FE348007840B1E2480068006920B1FF
:101B0000DF48C079C0F3400008B1002070470120D1
:101B1000FCE72DE9F0410026002543E000253EE0EA
:101B2000D94800EB461030F815004FF6FF71884297
:101B30002FD009F02FF807461421002003F06BFE88
:101B40000446FCB1384609F029F81421204609F072
:101B500053F9CE4860602572311261720020206115
:101B6000204601F05AF909F015F8074621460020F1
:101B700003F041FE384609F011F8BC48C08C401C07
:101B8000BA49C88442F2107300221146104608F088
:101B900079FEBB48807800B103E0681CC5B2102D07
:101BA000BEDB00BFBA480078012803D1B448807872
:101BB0000028B3D0BDE8F08170B508F0EBFF064611
:101BC0001421002003F027FE0446304608F0E6FF0B
:101BD00044B101206070002020610320A070AB4858
:101BE000401CA06008F0CDFEE060A64805682C61AE
:101BF0000020206170BD10B54FF6FF72002111E08A
:101C0000A14B33F811304FF6FF74A34208D09E4B1E
:101C100033F81130934203DA9B4B33F81120084616
:101C20004B1CD9B21029EBDB10BD2DE9F843064659
:101C30000025002793480568002408F0ABFF804684
:101C40001421002003F0E7FD0446404608F0A6FFFB
:101C50001421204609F0D0F8002E3FD188480078A2
:101C600000283BD086480078022837D00120207019
:101C700081480078874941EA004060600020207276
:101C800020612146012002F087FE6A460021824839
:101C9000006808F0C0F89DF8000000281DD17849C0
:101CA00008700CE02F693869286108F073FF8046DE
:101CB0003946002003F09FFD404608F06FFF286979
:101CC0000028EFD16F4805686D48C079C0F3400027
:101CD000002802D00020714908708BE0032E48D103
:101CE00067480078032844D00120207062480078BB
:101CF000684941EA004060600320207200202061B2
:101D00002146012002F048FE6A4600216248006830
:101D100008F081F89DF8000000286BD10320584995
:101D20000870962300221146104608F0ABFD0021F2
:101D30004FF0806004F017FE0CE02F6938692861CD
:101D400008F028FF80463946002003F054FD404645
:101D500008F024FF28690028EFD14A480568484860
:101D6000C079C0F34000002844D000204B490870DF
:101D700040E0012E3ED14248007801283AD0404848
:101D80000078022836D0012020703B480078414975
:101D900041EA00406060012020720020206121465D
:101DA000012002F0F9FD6A4600213B48006808F076
:101DB00032F89DF80000E8B90120314908700CE0C4
:101DC0002F693869286108F0E5FE80463946002011
:101DD00003F011FD404608F0E1FE28690028EFD12C
:101DE000284805682648C079C0F3400010B100209B
:101DF0002A49087008F0CEFE80462146002003F0F4
:101E0000FAFC404608F0CAFE1D480078BDE8F88399
:101E100010B5044624E04FF48071214804F038FBEB
:101E20004FF460611E4804F035FB4FF440711D48CB
:101E300004F030FB642004F0C3F84FF480711848BC
:101E400004F028FB4FF46061154804F021FB4FF4C7
:101E50004071144804F01CFB4FF4487004F0B0F8D3
:101E6000201EA4F10101CCB2D5D110BDF401002097
:101E7000E2000020DC00002008000020C401002057
:101E8000A4000020D4000020880200201002FE04DC
:101E90000A000020FB02000458000020000000207F
:101EA000001402400018024008B50020009000BF56
:101EB0000AE06A4600215848006807F0ACFF57481E
:101EC0000168002002F0B8F9F3E708B5002000909F
:101ED00000BF0AE06A4600215148006807F09BFFF6
:101EE0004E484168012002F0A7F9F3E708B5002049
:101EF000009000BF0AE06A4600214A48006807F0E7
:101F00008AFF49480168002002F06FFBF3E708B53B
:101F10000020009000BF0AE06A46002143480068A4
:101F200007F079FF40484168012002F05EFBF3E7CB
:101F300008B50020009000BF0AE06A4600213C4836
:101F4000006807F068FF3B480168002002F00FFCC2
:101F5000F3E708B50020009000BF0AE06A460021C0
:101F60003548006807F057FF32484168012002F009
:101F7000FEFBF3E708B500240020009021E06A464C
:101F800000212E48006807F046FF15E02C4909683B
:101F9000086902F039FD2A48006804692849206967
:101FA0000968086108F0F6FD05462146002003F0A7
:101FB00022FC284608F0F2FD21480068006900284C
:101FC000E4D1DCE708B5002400BF0020009021E048
:101FD0006A4600211B48006807F01DFF15E01A49FA
:101FE0000968086902F047FD174800680469164946
:101FF00020690968086108F0CDFD054621460020EA
:1020000003F0F9FB284608F0C9FD0F480068006995
:102010000028E4D1DCE7000064000020EC00002090
:10202000680000206C000020FC00002070000020F0
:1020300074000020F40000207800002090000020B0
:1020400004010020940000200801002000BF0024AB
:102050005CE04FF40071344804F01CFA4FF4FA735A
:1020600000221146104608F00DFC4FF400712E4876
:1020700004F00EFA4FF4FA7300221146104608F0ED
:1020800001FC2A4801780078401C284A10700A296F
:1020900005D1002011460870FF202549087023480B
:1020A00041784078401C214A50700A2905D100200F
:1020B00011464870FF201F4908701C4881788078BD
:1020C000401C1A4A90700A2905D1002011468870D8
:1020D000FF20194908701548C178C078401C134A80
:1020E000D0700F2907D100201146C8701421134861
:1020F000006808F081FE002003F0E6FA601CC4B21C
:10210000092C01D1002400BFFFF703FDA1E700BFA8
:1021100009E002F04FFF02F083FD0A23002211467E
:10212000104608F0AFFBF4E7001402404300002023
:102130004000002041000020420000204800002014
:102140002DE9F04100240025A0460026FE48046841
:1021500008F020FD074635E0FC48007801280DD046
:102160002069407868B3D4F8108020690069206144
:10217000384608F013FD4046BDE8F08120698078BC
:1021800002280BD020698078032807D02069807846
:10219000052803D020698078062809D1D4F810805A
:1021A000206900692061384608F0F8FC4046E3E702
:1021B000E748007828B925B92069807808B926460B
:1021C0002569246920690028C6D10DB128693061CC
:1021D000384608F0E3FC2846CEE72DE9F0410446F6
:1021E0004FF6FF774FF0FF0800BF00251CE0D948ED
:1021F00000EB451030F814004FF6FF71884211D003
:10220000D44901EB451131F81410D04A1289881ACB
:10221000002801DB014600E041428EB2BE4201DAF5
:102220003746A846681CC5B2042DE0DBB8F1FF0FA5
:1022300008D1C648C07920F00200C449C8716520A1
:10224000BDE8F0812146002000F044FDA0420AD103
:102250000120BF490870BD48C07920F00200BB4989
:10226000C8710020ECE70020EAE770B508F092FCA6
:1022700005461421002003F0CEFA0446284608F053
:102280008DFC1421204608F0B7FDB3480068C178E2
:10229000002000F01FFDB1480088401CAF490880B5
:1022A000AD4800688068AE4988420DD0012020709A
:1022B000A948006880686060552020720020206175
:1022C0002146012002F068FB08F064FC0546214627
:1022D000002003F090FA284608F060FC9B48C07983
:1022E00020F002009949C871002070BD70B501202E
:1022F00000F03AFC9848006880689949491C884277
:1023000026D008F047FC05461421002003F083FA8C
:102310000446284608F042FC1421204608F06CFDD3
:10232000012020708C480068806860600020207266
:1023300020612146012002F02FFB08F02BFC05460E
:102340002146002003F057FA284608F027FC00BF7A
:102350007E48C07920F002007C49C871002070BD21
:102360002DE9F0474FF000080026012000F0FCFBAB
:1023700000BF0BE0774800EB481030F816004FF62E
:10238000FF71884200D03746701CC6B2102EF1DBB8
:10239000704800884FF6FF71884201D0002500E0A8
:1023A00001253946002000F095FCB8424BD1294662
:1023B000002000F08FFCA8423FD167480068806889
:1023C00067491231884238D008F0E4FB8146142175
:1023D000002003F020FA0446484608F0DFFB1421F1
:1023E000204608F009FD082020705B4800688068DE
:1023F0006060564800782072544841786172817854
:10240000A1720179E172C1792173017A6173008946
:102410000112A1734D48C179E1730020206121466A
:10242000012002F0B9FA08F0B5FB814621460020F0
:1024300003F0E1F9484608F0B1FB4448C07920F0C8
:1024400002004249C8710020BDE8F087F8B5424853
:1024500000680079002101EB00203F490968C97834
:1024600044183D4800680079C01108B9A4B201E0E1
:102470003C480443E50F002C02DAE043461C00E030
:10248000264639480078012803D1C5F10100C5B2BC
:1024900003E03548007800B900BF32462946642081
:1024A00001F009F86A464FF4FA613048006807F015
:1024B000B2FC9DF800000A2824D1622023498870CC
:1024C000C5F10100C1B24FF47A72C82000F0F3FFE9
:1024D0006A464FF47A712548006807F09CFC9DF825
:1024E000000018B164201949887005E04FF47A7231
:1024F0002946C82000F0DFFF6A4600211B4800681B
:1025000007F089FC0020F8BD2DE9F84300201849A8
:1025100008700024002600254FF0030813E114483A
:10252000007806287ED2DFE800F0034B87919BFEFF
:1025300009480068C178002000F0CCFBC7B206480B
:102540000068C078034915E0D4000020A4000020F2
:102550004700002088020020C8000020C40100209D
:102560001002FE040000FFFFE1000020DC0000205C
:10257000CC00002031F81000B74909680979B74A42
:1025800032F81110884217D1B3480068C07811465C
:1025900031F810004FF6FF7188420DD0AE48006848
:1025A0000079114631F810004FF6FF71884203D0D0
:1025B0000420AB49087002E00120A9490870C1E07D
:1025C00008F0E8FA81461421002003F024F90446BB
:1025D000484608F0E3FA1421204608F00DFC0220DA
:1025E00020709D480068007800049E49097840EA00
:1025F000012040F0110040F0A05060609648006853
:10260000C0782072944800680179617200202061CE
:102610002146012002F0C0F908F0BCFA81462146AB
:10262000002000E08DE003F0E6F8484608F0B6FA36
:1026300002208B49087085E06A4600218A480068BC
:1026400007F0E9FB0320864908707BE082480068B8
:102650000179002000F03EFB04208149087071E000
:1026600008F098FA81461421002003F0D4F80646B9
:10267000484608F093FA1421304608F0BDFB0020CC
:10268000307075480068007800047649097840EA9F
:10269000012040F0130040F0A05070600020306135
:1026A0003146012002F078F908F074FA814631468B
:1026B000002003F0A0F8484608F070FA08F06AFA23
:1026C00081461421002003F0A6F80546484608F08C
:1026D00065FA1421284608F08FFB01202870614814
:1026E00000784FF0806141EA004040F4007040F013
:1026F000210068605848006800782872002028612E
:102700002946012002F048F908F044FA814629469A
:10271000002003F070F8484608F040FA05205049C0
:1027200008700FE0FFE76A4643F698214F480068BB
:1027300007F071FB00204E490870062048490870D8
:1027400000E000BF00BFB8F1000F04DD444800788E
:1027500006287FF4E4AE0020BDE8F88310B500241D
:102760003D4800688078072820D2DFE800F0041F89
:102770000B0F13171B0038490968C878FFF72DFDA8
:10278000044613E0FFF7C0FE04460FE0FFF7AEFD7E
:1027900004460BE0FFF7E4FD044607E0FFF765FDA4
:1027A000044603E0FFF752FE044600BF00BF204688
:1027B00010BD10B508F0EEF9044627480168002066
:1027C00003F019F8204608F0E9F910BD294800780F
:1027D000012801D1FFF7F0F911E0FFF7B1FC1E4924
:1027E000086030B90A2300221146104608F04AF862
:1027F00005E0FFF7B3FF08B9FFF7DBFF00BFECE729
:1028000000BF27E01C48007800281DDD0A230022B5
:102810001146104608F036F81848006800F002002B
:1028200028B90020164908701349087012E01348AF
:10283000006800F0020002280CD101201049087045
:1028400000200D49087005E00523002211461046BE
:1028500008F018F8D6E70000C80000208802002021
:10286000CC00002008000020500000205400002070
:1028700047000020A40000204C000020100402406B
:102880000200002000BF08F085F905461421002051
:1028900002F0C1FF0446284608F080F914212046C2
:1028A00008F0AAFA00202070606820F0FF00606045
:1028B000606820F47F406060606820F47F006060A2
:1028C000606820F080706060606820F00070606078
:1028D000606820F080606060606820F00060606088
:1028E000606820F08050606014E00B480078012898
:1028F00005D1204602F010F900200749087006486B
:102900000078401C0449087000230A221946184622
:1029100007F0B8FFE9E70000F101002010B5002042
:10292000002100224B4B9A82DA821A835A8300BF1D
:102930001EE0002118E0484A02EB401232F8112054
:102940004FF6FF739A420DD000F10A02414B33F863
:10295000122001238B401A4393B200F10A023D4C2E
:1029600024F812304A1CD1B21029E4DB421CD0B248
:102970000428DEDB10BD10B5002000210022354BFD
:102980009A83DA831A845A8400BF1EE0002118E07B
:10299000324A02EB401232F811204FF6FF739A428E
:1029A0000DD000F10E022B4B33F8122001238B4087
:1029B0001A4393B200F10E02264C24F812304A1C3E
:1029C000D1B21029E4DB421CD0B20428DEDB10BDFA
:1029D0000020234A116802E00969421C90B20A698A
:1029E000002AF9D1704708B5002400BF31E06A46DB
:1029F00000211C48006807F00EFA1B4800891549A1
:102A000008801948808848801748007888801648D0
:102A10004078088514488078488514480078C8852F
:102A2000FFF7D6FF0B490886002002F04DFE09494A
:102A30004886FFF7A0FF03F007FAFEF7BAFC601C18
:102A4000C4B2042C05D10A480089401C08490881F9
:102A50000024CCE7F40100200803002088020020B5
:102A6000D4000020D0000020A40000200800002096
:102A700000070020324909780170314949784170D6
:102A80002F49897881702E490979C1702C49C979FB
:102A9000017170471FB500200290039000BF34E021
:102AA0006846FFF7E7FF0522694602A808F0D7F855
:102AB00038B94FF4967300221146104607F0E2FE33
:102AC00023E0DDE90001CDE9020108F063F80546E5
:102AD0001421002002F09FFE0446284608F05EF80C
:102AE0004CB11848007840F2012141EA0040606092
:102AF0002046FEF7CDF908F04DF8054621460020A6
:102B000002F079FE284608F049F8C9E708B500BF89
:102B100015E06A4600210C48006806F0A0FC044657
:102B20002178491EC8B2FFF780F808F033F805464F
:102B30002146002002F05FFE284608F02FF8E8E763
:102B4000A4000020080000205C00002010B5142123
:102B5000002002F060FEF64908600846006810B1E7
:102B600000200968086110BD38B504464FF6FF70B3
:102B7000F0498880F048006800F00200C0B9EF48D2
:102B8000007838B940F2DC52ED480178642000F05A
:102B900092FC06E040F2DC52EA480178642000F042
:102BA0008AFC6A464FF49671E748006807F033F9EB
:102BB00001221821E54805F031FC17E0DF480078D4
:102BC00018B9642000F04DFC02E0642000F01FFC06
:102BD000DF48007850B90120DD490870DD490870F0
:102BE00000221821D94805F019FC03E0DA480078E2
:102BF0000028E3D100BF6A464FF49671D2480068BE
:102C000007F009F9D3480078012829D017E0CB480C
:102C1000007818B9962000F0FAFB02E0962000F048
:102C200020FCCB48007850B90120C9490870C94937
:102C3000087000221821C54805F0F0FB03E0C648E3
:102C400000780128E3D100BF00221821BF4805F019
:102C5000E5FB6A464FF49671BB48006807F0DBF865
:102C60000020BE490870BE480088401CBC4908804E
:102C7000B848007801280BD14FF6FF70AD49888025
:102C80000846C07940F00100C871002008810DE0BD
:102C90004FF6FE70A749888000200881887008469A
:102CA000C07940F00100C87100204870012C0BD1A0
:102CB000A8480078012807D0FEF79DFF0546294661
:102CC000FF2000F007F803E00020A249087038BD9B
:102CD00000BFFCE72DE9F84306460C46A14830F852
:102CE00014004FF6FF71884201D1BDE8F883FF2E32
:102CF00012D090480079A0420EDDFEF77CFFA04282
:102D00000BD199480078082807DB0020FFF72CFF3B
:102D100000209549087000E00026924800EB46101C
:102D200030F8140083490989451A35B944EA062068
:102D30008049888008468088D7E7002D6AD0EF0F49
:102D4000002D03DAE84300F1010800E0A8467B48C3
:102D50000078012803D1C7F10100C7B203E077482A
:102D6000007800B900BF42463946962000F0A3FB28
:102D70006A464FF4FA617448006807F04CF89DF811
:102D800000000A2829D162206A498870C7F1010031
:102D9000C1B24FF47A72C82000F08DFB6A464FF43E
:102DA0007A716948006807F036F89DF8000018B19C
:102DB00064206049887005E04FF47A723946C82073
:102DC00000F079FB6A4600215F48006807F023F8AD
:102DD000002058498870654908705E4800780128CD
:102DE00006D1FF205349888000205A49087003E02B
:102DF00044EA06204F4988805B480078401C5A49C5
:102E000008704C48C07920F040004A49C871084613
:102E100080886AE74748808867E72DE9F0410546E2
:102E200007F0B8FE07461421002002F0F4FC044627
:102E3000384607F0B3FE002C78D01421204607F066
:102E4000DBFF287920280DD100202061687A2070CE
:102E5000287AE07000206070A070287A207168687D
:102E6000A06085E02879102813D16868C0F300704D
:102E700078B100202061A888000A2070287AE070CC
:102E8000002060700220A070687A20716868A060DD
:102E90006EE0287911280BD10020206128791128B3
:102EA00001D10320A070012060706868A0605FE01D
:102EB0002879222806D10420A0700120607068685B
:102EC000A06055E02879102810D16868C0F3007020
:102ED00060B900202061287AE070687A20710120B2
:102EE00060700520A0706868A06041E02879122811
:102EF00010D16868C0F3007060B900202061287AA2
:102F0000E070687A2071012060700620A070686807
:102F1000A0602DE007F03EFE07462146002002F0AB
:102F20006AFC384607F03AFEBDE8F08133E0000065
:102F3000D4000020A400002010040240E100002082
:102F4000E2000020E3000020DC000020000400403C
:102F50000000002001000020020000204C000020A2
:102F6000C4010020880200201E000020C6010020AD
:102F700007F007FDE0605548066807F00BFE0746BE
:102F800000E0366930690028FBD1346120613846A1
:102F900007F004FE09E007F0FDFD0746214600208A
:102FA00002F029FC384607F0F9FD00BFBDE8F081CA
:102FB00070B50024002582220021454802F0FCF96A
:102FC00000BF19E0002413E0680100EB4400404911
:102FD000095C680100EB4400401C3D4A105C01EBB9
:102FE00000203C4901EB451121F81400601CC4B2DB
:102FF000102CE9DB681CC5B2042DE3DB012070BD99
:1030000070B5002400258221334807F0D3FE00BFAD
:103010001CE0002416E02F4800EB451010F81400C7
:10302000690101EB44012C4A50542A4800EB451039
:1030300030F814000112680100EB4400401C1154E8
:10304000601CC4B2102CE6DB681CC5B2042DE0DBAA
:103050008021214802F0CEFD00121F4981F8800036
:1030600080211D4802F0C6FD1B4981F881008222A3
:103070000021194802F046FA82224FF48051164886
:1030800002F040FA70BD10B502465AB9084601EB8D
:10309000D0735C100423A340104CE47923430F4CFD
:1030A000E3710FE0012A0BD1084601EBD0735C10ED
:1030B0000423A340094CE4799C43084BDC7101E0F4
:1030C000002010BD0548C079FBE70000D4000020B7
:1030D0004A04002088020020C8030020A400002029
:1030E00010B50446012C02D1FE49087003E014B962
:1030F0000020FC49087001225103FA4802F002FA4C
:1031000010BD30B589B004460D460121480403F0D6
:103110003BFC0121202003F0DDFB40200490022035
:103120008DF8140001208DF8170004A9EE4803F073
:1031300033F903220621EC4803F0B9F9ADF8045045
:103140000020ADF806000294ADF80C0001A9E74894
:1031500004F0C3FC0020ADF818000220ADF81A00FE
:103160000120ADF81C000020ADF81E00ADF82000D5
:1031700006A9DE4805F088F80221DC4805F076F95A
:1031800001220221D94805F049F919208DF80000E3
:103190000B208DF8010000208DF8020001208DF831
:1031A0000300684603F007F80121D04804F01EFD33
:1031B00009B030BD30B589B004460D460121080480
:1031C00003F0E2FB0121102003F084FB2020049097
:1031D00002208DF8140001208DF8170004A9C448BE
:1031E00003F0DAF803220521C14803F060F9ADF8D5
:1031F00004500020ADF806000294ADF80C0001A9BF
:10320000BC4804F06AFC0020ADF818000220ADF8BC
:103210001A000120ADF81C000020ADF81E00ADF82A
:10322000200006A9B34805F02FF80221B14805F0A7
:103230001DF900220221AF4805F0F0F818208DF8A2
:1032400000000C208DF8010000208DF80200012004
:103250008DF80300684602F0AEFF0021A54804F097
:10326000C5FC09B030BD30B589B004460D4601211A
:10327000022003F078FB0121022003F02BFB032046
:10328000049002208DF8140001208DF8170004A985
:10329000994803F081F802220021974803F007F9CA
:1032A00002220121944803F002F9ADF804500020F5
:1032B000ADF806000294ADF80C0001A98F4804F0A7
:1032C0000CFC0820ADF818000A20ADF81A00012007
:1032D000ADF81C000020ADF81E00ADF8200006A9D6
:1032E000864804F0D1FF0C20ADF818000A20ADF894
:1032F0001A000120ADF81C000020ADF81E00ADF84A
:10330000200006A97D4804F0BFFF18217B4805F086
:10331000ADF800221821794805F080F81D208DF8BD
:1033200000000D208DF8010000208DF80200012022
:103330008DF80300684602F03EFF01216F4804F05B
:1033400055FC09B030BD7FB504460D460121102063
:1033500003F009FBADF804500020ADF8060002941C
:10336000ADF80C0001A9664804F0B7FB01216448E0
:1033700005F07CF801221146614805F04FF8012163
:103380005F4804F033FC36208DF800000A208DF8E9
:10339000010000208DF8020001208DF8030068462E
:1033A00002F009FF7FBD1CB50121402003F092FA15
:1033B000C020009001208DF8040000208DF8060048
:1033C00003208DF8050001208DF8070069464D485F
:1033D00002F0E2FF0121042003F07CFA4FF4405098
:1033E000009001208DF8040000208DF806000320D5
:1033F0008DF8050001208DF807006946424802F06B
:10340000CBFF4FF48051404803F044F81CBD38B561
:103410000446002000903D4908603D490C700120A1
:103420003C49C1F89C020121354804F0DFFB6A46A3
:1034300000213948006806F0EEFC35490C70002088
:103440003249091D086001212D4804F0CFFB6A466E
:1034500000213148006806F0DEFC01202F49087089
:1034600038BD38B504460020009001202749086087
:1034700027490C702749C1F89C020121204804F01B
:10348000B5FB6A4600212448006806F0C4FC2049C8
:103490000C7000201D49091D08600121184804F026
:1034A000A5FB6A4600211C48006806F0B4FC002019
:1034B0001A49087038BD2DE9F05F05468A46144662
:1034C0004FF000093C27A846A3464FF6FF70144969
:1034D0008880BD4227D9E81BB4FBF0F04608322EA5
:1034E00021D31FE0E100002000140240004401400D
:1034F000001002400040014000040240000400406F
:1035000000100040001802400008024098024342A8
:10351000E000002000004342D80000201C000020F2
:10352000A4000020322601208E4908708E480078C1
:1035300082454BD100BF40E08C48007828B901207B
:103540008A4908708A49087039E04FF0000906E09E
:103550002846FFF75CFF09F1010000F0FF09B9F10F
:10356000020FF5DBBD420CD9B4FBF6F006FB1040B0
:1035700038B9ABEB0401A8EB07007043814200D8D7
:103580006D1EB4FBF6F006FB104038B9454505D872
:10359000A8EB07007043A04200D36D1C754800786B
:1035A00028B975480089401C7349088104E07248B5
:1035B0000089401E70490881641E002CBCD100BFE8
:1035C0000020684908700120BDE8F09F6B48007832
:1035D00082454AD100BF40E06448007828B9012004
:1035E000624908706249087039E04FF0000906E04E
:1035F0002846FFF736FF09F1010000F0FF09B9F195
:10360000020FF5DBBD420CD9B4FBF6F006FB10400F
:1036100038B9ABEB0401A8EB07007043814200D836
:103620006D1EB4FBF6F006FB104038B9454505D8D1
:10363000A8EB07007043A04200D36D1C4D480078F2
:1036400028B94D480089401E4B49088104E04A488A
:103650000089401C48490881641E002CBCD100BF71
:103660000020404908700120AEE70020ACE710B50B
:1036700005F056FB0121424804F0E7FE012815D170
:1036800040480088401D3F4908803F48007809882D
:10369000401A02280ADC00203A49088000213848F4
:1036A00004F0A4FA3948006806F064FC01213448AB
:1036B00004F0DCFE05F04FFB10BD10B505F030FB4B
:1036C0000221334804F0C1FE38B132480068008955
:1036D00018B93048006806F04DFC2F48C088401CDF
:1036E0002D49C88003212A4804F0C0FE05F033FBB1
:1036F00010BD10B505F014FB0221284804F0A5FE0A
:1037000058B1274800880A302549088061201A49A5
:1037100088700221214804F0A9FE05F01CFB10BDB1
:1037200010B505F0FDFA10211E4804F08EFE40B1E0
:103730001D480078401C1C4908701021194804F0ED
:1037400095FE0821174804F080FE40B11648007825
:10375000401C154908700821124804F087FE05F046
:10376000FAFA10BD1D000020E20000200000002039
:1037700001000020E1000020A4000020E300002060
:1037800000100040E4000020E0000020D8000020ED
:1037900000440140DC000020000700200040014000
:1037A000C4010020000400404C000020F8B506468B
:1037B0000F4615461C463946304603F022FC294682
:1037C000F84803F0A8FC04F0010098B1012202219E
:1037D000F44803F080FF14208DF8000006208DF8D7
:1037E000010000208DF8020001208DF803006846DA
:1037F00002F0E1FC04F0020098B101221021E94836
:1038000003F069FF15208DF8000008208DF80100F5
:1038100000208DF8020001208DF80300684602F0B8
:10382000CAFC04F0040098B101220221DE4803F032
:1038300052FF40208DF8000007208DF80100002085
:103840008DF8020001208DF80300684602F0B3FCF9
:1038500004F0080080B101221021D34803F03BFF9F
:1038600041208DF8000009208DF8010000208DF81E
:10387000020001208DF803000020F8BDF0B52DED09
:10388000028B89B00746B0EE408A0E4615460024EA
:1038900017B1012F7DD1A6E00121084603F01AF8E7
:1038A0000121480603F05FF84FF4C0500790022052
:1038B0008DF8200000208DF8220003208DF82100D3
:1038C00001208DF8230007A9B84802F065FD092200
:1038D0000B21B64802F0EBFD09220C21B34802F09F
:1038E000E6FD00243BE004EB4400B14901EB80001D
:1038F00090ED000AB4EE480AF1EE10FA2DD1002046
:103900008DF8160001208DF8170000208DF81800A2
:103910008DF819008DF81A008DF81B008DF81260D3
:1039200004EB440001EB800000798DF8130004EBF8
:10393000440001EB800040798DF8140004EB440052
:1039400001EB800080798DF8150004EB440001EB59
:1039500080000089ADF810000E24601CC4B20E2C4B
:10396000C1DB05F00100E8B100208DF80A008DF8F8
:103970000B0001208DF80C000020ADF80000ADF820
:103980000200ADF80400ADF80600ADF80800012013
:1039900000E0CDE08DF80D002B466A4604A9814871
:1039A000FFF704FF05F00200E0B101208DF80A00E6
:1039B00000208DF80B0001208DF80C000020ADF8E0
:1039C0000000ADF80200ADF80400ADF806000120DB
:1039D000ADF808008DF80D002B466A4604A9714821
:1039E000FFF7E4FEA5E00121022002F073FF0121B0
:1039F000880602F0B8FF6020079002208DF82000B2
:103A000000208DF8220003208DF8210001208DF880
:103A1000230007A9674802F0BFFC09220521654879
:103A200002F045FD09220621624802F040FD002413
:103A30003BE004EB44005E4901EB800090ED000A9E
:103A4000B4EE480AF1EE10FA2DD100208DF81600E0
:103A500001208DF8170000208DF818008DF819004E
:103A60008DF81A008DF81B008DF8126004EB4400ED
:103A700001EB800000798DF8130004EB440001EBAA
:103A8000800040798DF8140004EB440001EB8000C5
:103A900080798DF8150004EB440001EB800000896B
:103AA000ADF810000E24601CC4B20E2CC1DB05F072
:103AB0000400E0B10E208DF80A0000208DF80B0004
:103AC00001208DF80C000020ADF80000ADF80200D8
:103AD000ADF80400ADF80600ADF8080001208DF83F
:103AE0000D002B466A4604A92F48FFF75FFE05F03C
:103AF0000800E0B103208DF80A0000208DF80B00CB
:103B000001208DF80C000020ADF80000ADF8020097
:103B1000ADF80400ADF806000120ADF808008DF8FE
:103B20000D002B466A4604A91F48FFF73FFE00E040
:103B300000BF00BF09B0BDEC028BF0BD10B504465C
:103B400074B9012200219FED1C0A0846FFF796FE7A
:103B5000042200219FED180A0120FFF78FFE4EE09E
:103B6000012C0ED101220021B3EE040A0846FFF712
:103B700085FE04220021B3EE040A0120FFF77EFE39
:103B80003DE0022C1AD101220021B2EE040A0846BF
:103B9000FFF774FE04220021B2EE040A0120FFF7B1
:103BA0006DFE2CE000640040006800400000024010
:103BB000180100200004024000004842032C0ED1EE
:103BC00001220021B1EE040A0846FFF757FE042245
:103BD0000021B1EE040A0120FFF750FE0FE0042C93
:103BE0000DD1012200219FEDFE0A0846FFF746FE97
:103BF000042200219FEDFA0A0120FFF73FFE10BDCD
:103C000008B5684602F0D7FA01221146F54803F0DC
:103C100062FD3F208DF8000004208DF80100002097
:103C20008DF8020001208DF80300684602F0C3FA07
:103C300001221146EC4803F04EFD13208DF80000E0
:103C400005208DF8010000208DF8020001208DF87C
:103C50000300684602F0AFFA08BDE449096841F084
:103C60000101E24A116050B91146096821F47F410F
:103C700011601146096841F4D05111600CE001282F
:103C80000AD1DA49096821F47F41D84A1160114606
:103C9000096841F480711160D449096821F001017B
:103CA000D24A1160704710B51421002001F0B3FD15
:103CB000CF4908600846006810B100200968086113
:103CC0001421002001F0A7FDC9494860084640685A
:103CD00010B10020496808611421002001F09BFD0B
:103CE000C44908600846006810B1002009680861EE
:103CF0001421002001F08FFDBE494860084640684D
:103D000010B10020496808611421002001F083FDF2
:103D1000B94908600846006810B1002009680861C8
:103D20001421002001F077FDB3494860084640683F
:103D300010B10020496808611421002001F06BFDDA
:103D4000AE4908600846006810B1002009680861A3
:103D50001421002001F05FFDA949086008460068B1
:103D600010B100200968086110BD10B500230C785F
:103D70002CB90C7802550C78641C0C7015E005E029
:103D8000C45C944200D104E05C1CE3B20C789C4219
:103D9000F6DC00BF0C789C4207D10C781E2C04DAAC
:103DA0000C7802550C78641C0C7010BD70B505467B
:103DB0000C46207A10B1042828D113E0207AA8708C
:103DC000607A6870A07A287020686860A27A04F12E
:103DD0000B0105F1080006F06EFF1421204607F0E4
:103DE0000BF818E0207AA870607A6870A07A2870C2
:103DF00060686860A27A04F10B0105F1080006F022
:103E00005AFF1421204606F0F7FF04E01421204653
:103E100006F0F2FF00BF00BF687870BD70B586B0D5
:103E200005460E46144615B1012D47D118E0002174
:103E30006D4803F0B8FB10B9002006B070BD01AAB0
:103E40000021694803F02CFB01A92046FFF7AEFFD3
:103E500028B91421204606F0CFFF0020EDE72EE020
:103E60000021604803F09FFB08B90220E5E701AAA2
:103E700000215C4803F014FB9DF80D00022817D1C7
:103E800001A960480068FFF791FF5E48006840683C
:103E9000C0F307405C490978884207D15B48006855
:103EA00006F068F8142101A806F0A6FF0220C4E776
:103EB00001A92046FFF77AFF0020BEE700BF00BF40
:103EC0002078BAE730B5002100220023B0B9464C73
:103ED00018342468210E444C18342468C4F3074273
:103EE000414C18342468C4F302133F4C183424683E
:103EF00044F070043C4D18352C6017E0012815D1B2
:103F0000384C18342468210E364C18342468C4F315
:103F10000742344C18342468C4F30213314C18346B
:103F2000246844F070042F4D18352C6030BD2DE905
:103F3000F04706460D4614461F46DDF820804FF038
:103F4000000906F027FE8246314804720CB905606C
:103F500003E0042C01D12E48456000202C49487212
:103F6000084680F80A80424639460B3006F0A3FE28
:103F7000504606F013FE16B1012E0CD105E024497F
:103F8000194803F0A7F9814606E02149154803F0D6
:103F9000A1F9814600E000BF00BF4846BDE8F087B8
:103FA0002DE9FC4105460C4600200190002D5AD118
:103FB00006F0F0FD06461748007868BB0120154959
:103FC0000870304606F0EAFD2846FFF77BFF0648FA
:103FD0001830006800F00400B0BB207800901CE0AE
:103FE0000000FA42006800400064004000660040A3
:103FF000EC000020F4000020FC0000200401002060
:10400000080100200C000020080000208C00002087
:10401000D8060020C001002021E0A27804F10803A6
:1040200000206168FFF783FF01AA3221FB48006886
:1040300005F015FAC7B2042F07D100270020F84970
:1040400008700420BDE8FC8104E00020F4490870F9
:104050000320F7E70020F24908700220F2E730461B
:1040600006F09CFD3EE0012D3CD106F093FD064696
:10407000EC48007890BB0120EA490870304606F011
:104080008DFD2846FFF71EFFE748006800F004009A
:10409000F8B920780090A27804F108030120616843
:1040A000FFF745FF01AA3221E048006805F0D7F983
:1040B00000F0FF08B8F1040F06D14FF0000800200F
:1040C000D84908700420BDE70020D64908700320B5
:1040D000B8E70020D34908700220B3E7FFE7304675
:1040E00006F05CFD0120ADE72DE9F04106460D46E6
:1040F0001446002706F04EFD8046CD4804720CB9E8
:10410000056003E0042C01D1C94845600220C8497C
:104110004872404606F042FD16B1012E0DD105E071
:10412000C349C44803F0D6F8074607E0C049BE4873
:10413000183803F0CFF8074600E000BF00BF38464C
:10414000BDE8F0812DE9F8430446884691460020F9
:104150000090002C37D106F01DFD0546B6480078CA
:1041600068BB0120B4490870284606F017FD2046B8
:10417000FFF7A8FEAF481830006800F00400C8B987
:104180004A4641460020FFF7AFFF6A463221A34866
:10419000006805F064F9C6B2042E06D1002600209E
:1041A000A54908700420BDE8F8830020A2490870E2
:1041B0000320F8E70020A04908700220F3E7284612
:1041C00006F0ECFC36E0012C34D106F0E3FC0546A9
:1041D0009A48007858BB012098490870284606F094
:1041E000DDFC2046FFF76EFE8F48006800F00400FB
:1041F000C0B94A4641460120FFF776FF6A463221A0
:104200008A48006805F02BF9C7B2042F05D10027B2
:1042100000208A4908700420C5E7002087490870FB
:104220000320C0E70020854908700220BBE728462C
:1042300006F0B4FC0120B6E72DE9F04781460D46B3
:104240000027002400262C46B9F1000F03D0B9F155
:10425000010F7CD159E054E020694068C0F38060D0
:1042600000B301283DD106F095FC824614210020C0
:1042700001F0D1FA0646504606F090FC8EB11422A9
:104280003046216906F05CFD6D48046800E0246951
:1042900020690028FBD1266130616A48006805F07A
:1042A00069FE1FE006F076FC82461421002001F032
:1042B000B2FA0646504606F071FC8EB11422304622
:1042C000216906F03DFD6048046800E0246920692A
:1042D0000028FBD1266130615C48006805F04AFE89
:1042E00000E000BF00BF2C4627693869206106F056
:1042F00051FC82463946002001F07DFA504606F016
:104300004DFC20690028A7D1C1E0BAE020694068CF
:10431000C0F30070E0B920698088C0F307204C49E1
:104320000978884214D020698088C0F3072078B1CA
:104330002C4627693869206106F02CFC82463946F4
:10434000002001F058FA504606F028FC99E09DE064
:1043500020694068C0F307483E480078804502D095
:10436000B8F1FF0F7FD13C484088401C3A49488053
:1043700020694068C0F3806000B301283DD106F099
:1043800009FC82461421002001F045FA06465046F9
:1043900006F004FC8EB114223046216906F0D0FCF0
:1043A0002748446800E0246920690028FBD1266181
:1043B00030612A48006805F0DDFD1FE006F0EAFBE9
:1043C00082461421002001F026FA0646504606F0E7
:1043D000E5FB8EB114223046216906F0B1FC1A4883
:1043E000446800E0246920690028FBD1266130611F
:1043F0001B48006805F0BEFD00E000BF00BF2C4672
:1044000027693869206106F0C5FB824639460020DD
:1044100001F0F1F9504606F0C1FB32E098000020AF
:10442000C0010020C1010020186800409C0000204D
:10443000EC06002000640040C2010020C3010020FF
:10444000FC0000206C000020F4000020740000201C
:104450000900002008000020000700207000002054
:1044600078000020FFE72C4627693869206106F0B4
:1044700091FB82463946002001F0BDF9504606F016
:104480008DFB206900287FF441AF00E000BF00BF32
:10449000BDE8F08730B5039C6060A170237015689B
:1044A000A5605568E56030BD2DE9FC5F05460E4608
:1044B0001F46DDE90CB4DDF838804FF00009CA462C
:1044C00015B1012D71D142E006F064FB0190142179
:1044D000002001F0A0F90446019806F05FFBA4B3A8
:1044E000002020615B463A46042130460094FFF7E5
:1044F000D1FF18E0052300221146104606F0C2F94C
:1045000009F101001FFA80F9C1450CDB06F042FBFE
:1045100001902146002001F06EF9019806F03EFB63
:104520000020BDE8FC9F21462846FFF739FD0428FE
:10453000E0D106F02FFB01902146002001F05BF94D
:10454000019806F02BFB0120EBE7FFE742E006F0C5
:1045500021FB01901421002001F05DF9044601982F
:1045600006F01CFB0CB1002020615B463A4604219A
:1045700030460094FFF78EFF18E014230022114606
:10458000104606F07FF90AF101001FFA80FAC245D1
:104590000CDB06F0FFFA01902146002001F02BF918
:1045A000019806F0FBFA0020BBE711E021462846FF
:1045B000FFF7F6FC0428E0D106F0ECFA0190214662
:1045C000002001F018F9019806F0E8FA0120A8E7A8
:1045D0000020A6E700BF0020A3E710B503469C0615
:1045E00044EA024444EA012010BD2DE9FF5F804601
:1045F0000D46002700242C46B8F1000F03D0B8F177
:10460000010F67D135E030E020694068C0F3074A08
:1046100020698088C0F3072B206906795A465146E5
:104620000120FFF7DAFF40EA06092069406820F020
:1046300080602169486064200821CDE9001502905E
:10464000206900F10803042249464046FFF72CFF89
:1046500027693869206106F09DFA039039460020E9
:1046600001F0C9F8039806F099FA20690028CBD127
:1046700031E02BE02069067920694068C0F30740EB
:10468000FF2804D140462169FCF7CCF811E02069ED
:104690004068C0F3007038B1009532464946404644
:1046A0002369FCF76CF904E02A4640462169FCF7CF
:1046B000D8F827693869206106F06CFA039039460A
:1046C000002001F098F8039806F068FA20690028A5
:1046D000D0D100E000BF00BFBDE8FF9F2DE9F84F3B
:1046E00083460C466068C0F3007030B394F804A0B1
:1046F0006068C0F30748A088C0F307294A464146CE
:104700000020FFF76AFF40EA0A0040F08056606828
:1047100020F080606060042231465846FFF712FDA9
:104720000546042D21D0032D06D1042231465846DA
:10473000FFF708FD009018E017E06068C0F3007014
:1047400088B9A088C0F30721676861F31F27FE4876
:104750000078002101EB0040C6190422314658467A
:10476000FFF7F0FC01E0BDE8F88F00BFFBE72DE9A3
:10477000F04106460F46002500243C4616B1012EA6
:1047800036D115E010E0F148006805F0F3FB25692B
:104790002869206106F0FEF980462946002001F0D4
:1047A0002AF8404606F0FAF920690028EBD120E00B
:1047B0001AE020694068C0F30740FF2804D1304662
:1047C0002169FCF72FF802E02069FCF704F825695D
:1047D0002869206106F0DEF980462946002001F0B4
:1047E0000AF8404606F0DAF920690028E1D100E035
:1047F00000BF00BFBDE8F0812DE9F0410026002593
:10480000002404F08DFA06F0C5F9074614210020B3
:1048100001F001F804461CB3384606F0BFF9224601
:1048200000210846FFF7FAFA0646002E0DDDC848BB
:10483000056800E02D6928690028FBD12C61206102
:10484000C448006805F096FB0DE006F0A3F90746A2
:104850002146002000F0CFFF384606F09FF902E025
:10486000384606F09BF904F076FABDE8F0812DE9B0
:10487000F0410026002404F053FA06F08BF90746B5
:104880001421002000F0C7FF0446E4B1384606F0CA
:1048900085F9224600210120FFF7C0FA05466DB9CF
:1048A000AB48466800E0366930690028FBD13461C6
:1048B0002061A948006805F05DFB07E02146002063
:1048C00000F099FF02E0384606F068F904F043FA78
:1048D000BDE8F08170B504F023FA01219F4802F091
:1048E00062FF012811D19D4808300068C0F34005DF
:1048F0000DB1042400E0032421469948006804F027
:1049000069FE0121954802F0E8FF04F024FA70BD29
:1049100070B504F005FA0121924802F044FF012825
:1049200016D1904808300068C0F340050DB104244A
:1049300000E0032421468C48006804F04BFE8B48BD
:104940008088401C894988800121864802F0C5FF83
:1049500004F001FA70BD704718B90021844A117043
:104960000AE0012803D12821814A117004E00228BD
:1049700002D15F217E4A11707047F0B505AD95E810
:10498000E010099C22706370A570E670277184F8AE
:1049900005C0F0BD704770472DE9F04104460F4651
:1049A0000026002506F0F6F880461421002000F0CD
:1049B00032FF05461DB3404606F0F0F81422394692
:1049C000284606F0BDF914B96A48066803E0012CD0
:1049D00001D16948066800E0366930690028FBD1DA
:1049E0003561286124B96548006805F0C3FA09E01B
:1049F000012C07D16248006805F0BCFA02E040468D
:104A000006F0CCF8BDE8F0817FB5044600200390A5
:104A100000262FE0C8212078CDE90171009004F133
:104A20000803042200206168FFF73EFD054605B932
:104A30007FBD03AA4FF496714448006805F0EBF976
:104A40009DF80C0020B94F48002101808170EFE7EC
:104A50009DF80C000A2808D1701CC6B2032E09DB91
:104A60004848002101808170E2E74648002101802A
:104A70008170DDE7CEE77FB5044600200390002675
:104A800030E04FF4FA712078CDE90171009004F123
:104A90000803042201206168FFF706FD054605B9F9
:104AA0007FBD03AA4FF496713748006805F0B3F94B
:104AB0009DF80C0020B93548002101808170EFE796
:104AC0009DF80C000A2808D1701CC6B2032E09DB21
:104AD0002E48002101808170E2E72C4800210180EE
:104AE0008170DDE7CDE72DE9E043814694F804804D
:104AF0006068C0F30746A088C0F307273A463146EE
:104B00000020FFF76AFD40EA0805606820F0806039
:104B100060602846BDE8E083FEB504466068C0F3E7
:104B20000070A8B32046FFF7DEFF40F080556421F7
:104B3000207804F108030422CDE901810090294680
:104B40000120FFF7B1FC46E00800002088000020AB
:104B5000EC00002064000020680000200064004099
:104B600098000020006800409C0000200007002002
:104B7000E80000200401002008010020900000202F
:104B800094000020120100208C000020150100205C
:104B9000FFE76068C0F30070E0B900200F490870BB
:104BA000A088C0F30721666861F31F260C480078CF
:104BB000002101EB004085196421207804F10803ED
:104BC0000422CDE90181009029460120FFF76CFC09
:104BD000074600E0FEBD00BFFCE70000F101002039
:104BE000080000201CB50121202001F073FE4FF4C5
:104BF0008070009001208DF8040000208DF80600E0
:104C000003208DF8050001208DF80700694625482E
:104C100001F0C2FB4FF48071224801F039FC1CBD49
:104C200010B52148007820B900202049088020498B
:104C300008701E480088D0B14FF48071194801F007
:104C400027FCC82300221146104605F01BFE4FF436
:104C50008071144801F01EFC3223002211461046D8
:104C600005F010FE11480088401E104908801048C9
:104C70000078012814D101020A4801F009FCC82378
:104C800000221146104605F0FDFD4FF480710548E5
:104C900001F000FC642300221146104605F0F2FDED
:104CA00010BD000000140240C7010020C401002014
:104CB000C60100201CB50121202001F00BFE0121BE
:104CC000402001F007FE4FF46060009001208DF855
:104CD000040000208DF8060003208DF80500012057
:104CE0008DF807006946E24801F056FB4FF440702A
:104CF000009001208DF8040000208DF806000320AC
:104D00008DF8050001208DF807006946D94801F0AB
:104D100043FB4FF46061D64801F0BCFB4FF4407197
:104D2000D44801F0B7FB1CBD10B50446662C04D076
:104D3000672C08D06F2C21D10BE04FF40071CC48C8
:104D400001F0A6FB1BE04FF48061C94801F0A0FB15
:104D500015E04FF48061C64801F09AFB4FF4006102
:104D6000C34801F095FB4FF48071C24801F090FBFD
:104D70004FF40071BF4801F08BFB00E000BF00BFA3
:104D800010BD2DE9F04107460C4625796679A7F15B
:104D9000650005287DD2DFE800F003376BA1D50060
:104DA000257917E04FF40071B14801F073FB2388B7
:104DB00000221146104605F065FD4FF40071AC4825
:104DC00001F066FB638800221146104605F05AFD8B
:104DD000681EC5B2002DE5DC667912E04FF4007163
:104DE000A34801F055FB238800221146104605F028
:104DF00049FD638800221146104605F043FD701EF0
:104E0000C6B2002EEADCD2E0257917E04FF48061CB
:104E1000974801F03FFB238800221146104605F019
:104E200031FD4FF48061924801F032FB638800222B
:104E30001146104605F026FD681EC5B2002DE5DCC2
:104E4000667912E04FF48061894801F021FB2388E4
:104E500000221146104605F015FD63880022114618
:104E6000104605F00FFD701EC6B2002EEADC9EE073
:104E7000257919E04FF400617D4801F00BFB238890
:104E800000221146104605F0FDFC4FF40061784801
:104E900000E08BE001F0FCFA638800221146104626
:104EA00005F0F0FC681EC5B2002DE3DC667912E067
:104EB0004FF400616E4801F0EBFA2388002211469E
:104EC000104605F0DFFC638800221146104605F00D
:104ED000D9FC701EC6B2002EEADC68E0257917E026
:104EE0004FF48071634801F0D5FA238800221146FF
:104EF000104605F0C7FC4FF480715E4801F0C8FA17
:104F0000638800221146104605F0BCFC681EC5B23D
:104F1000002DE5DC667912E04FF48071554801F010
:104F2000B7FA238800221146104605F0ABFC6388CF
:104F300000221146104605F0A5FC701EC6B2002ED8
:104F4000EADC34E0257917E04FF40071494801F0BC
:104F5000A1FA238800221146104605F093FC4FF475
:104F60000071444801F094FA63880022114610460B
:104F700005F088FC681EC5B2002DE5DC667912E0FC
:104F80004FF400713B4801F083FA23880022114658
:104F9000104605F077FC638800221146104605F0A4
:104FA00071FC701EC6B2002EEADC00E000BF00BF3C
:104FB000BDE8F08110B540E02F48008848B14FF4BB
:104FC00000712B4801F066FA2B480088401E2A49E0
:104FD00008802948408848B14FF48061244801F096
:104FE00059FA25484088401E234948802248808835
:104FF00048B14FF400611E4801F04CFA1E48808809
:10500000401E1D4988801C48C08848B14FF48071FB
:10501000184801F03FFA1848C088401E1649C88059
:105020001548008948B14FF40071124801F032FA76
:1050300011480089401E104908810F4800880E4918
:10504000498808430C49898808430B49C9880843A3
:105050000949098908430028AED13C2300221146A2
:10506000104605F00FFC6F20FFF75EFE10BD00003C
:1050700000140240001802400007002010B504464A
:1050800000BF0221F74803F0DDFC0028F9D02146DB
:10509000F44803F08EFC00BF0121F24803F0D2FC7B
:1050A0000028F9D0EF4803F081FCC0B210BD00B574
:1050B00087B00121022001F00DFC0121080301F05D
:1050C00063FC3820059002208DF8180000208DF830
:1050D0001A0003208DF8190001208DF81B0005A986
:1050E000E14801F059F905220321DF4801F0DFF919
:1050F00005220421DC4801F0DAF905221146DA48DC
:1051000001F0D5F90121080301F093FC00214FF4CF
:10511000805001F08EFC0020ADF800004FF482704A
:10512000ADF802000020ADF804000220ADF8060042
:105130000120ADF808004002ADF80A003820ADF8B3
:105140000C000020ADF80E000720ADF810006946F5
:10515000C44803F0B3FA0121C24803F0A9FBFF20C1
:10516000FFF78CFF07B000BD10B50446BD480088AE
:105170004FF6C7710840BB490880084600882043A5
:1051800008800121B74803F093FB10BD10B5044619
:1051900000BF0221B54803F055FC0028F9D0214694
:1051A000B24803F006FC00BF0121B04803F04AFCFE
:1051B0000028F9D0AD4803F0F9FBC0B210BD00B52E
:1051C00087B00121022001F085FB0121880301F055
:1051D000CAFB4FF46040059002208DF818000020B3
:1051E0008DF81A0003208DF8190001208DF81B009E
:1051F00005A99D4801F0D0F805220D219A4801F03B
:1052000056F905220E21984801F051F905220F2187
:10521000954801F04CF90121880301F0F9FB0021C8
:105220004FF4804001F0F4FB0020ADF800004FF493
:105230008270ADF802000020ADF804000220ADF845
:1052400006000120ADF808004002ADF80A00382041
:10525000ADF80C000020ADF80E000720ADF81000EE
:105260006946824803F02AFA0121804803F020FBB6
:10527000FF20FFF78BFF07B000BD10B504467B4849
:1052800000884FF6C77108407849088008460088B2
:10529000204308800121754803F00AFB10BD10B5BA
:1052A00000240020724908609020FFF76FFF002063
:1052B000FFF76CFF0020FFF769FF0020FFF766FF94
:1052C000FF20FFF763FF44EA0024FF20FFF75EFFA3
:1052D000044301206749C1F8B002204610BD1CB547
:1052E0000121022001F0F6FA0121402001F0F2FA3A
:1052F0004FF48050009001208DF8040000208DF8BC
:10530000060003208DF8050001208DF8070069468E
:10531000554801F041F8802000906946564801F058
:105320003BF88021544801F0B3F80120504908604F
:10533000FFF745FF0820FFF7A0FFFFF7B0FF4F4939
:1053400008801CBD10B500240020494908600520D4
:10535000FFF71CFFFF20FFF719FF04460120454916
:10536000C1F8B002204610BD10B5044600204049E7
:1053700008600120FFF70AFF2046FFF707FF012022
:105380003C49C1F8B00210BD10B500203849086092
:105390000620FFF7FBFE01203649C1F8B00210BD20
:1053A00010B50020324908600420FFF7EFFE01200D
:1053B0003049C1F8B00210BD2DE9F04106460C4657
:1053C000174600202A4908600320FFF7DFFEC4F3D8
:1053D0000740FFF7DBFEC4F30720FFF7D7FEE0B27C
:1053E000FFF7D4FE002505E0FF20FFF7CFFE705544
:1053F000681C85B2BD42F7DB01201D490860BDE88D
:10540000F08110B500BFFFF79DFF00F001000028FC
:10541000F9D110BD2DE9F04106460C461746FFF7BD
:10542000B3FF0020124908600220FFF7AFFEC4F36B
:105430000740FFF7ABFEC4F30720FFF7A7FEE0B27B
:10544000FFF7A4FE002504E0705DFFF79FFE681CD7
:1054500085B2BD42F8DB012005490860FFF7D1FFA6
:10546000BDE8F081003001400004024000380040F7
:10547000B08240420080404200180240C801002033
:105480002DE9F04107460E461446F0B2C0F580758E
:10549000AC4200DC254612E02A4631463846FFF78A
:1054A000B9FFAC4200D10BE02F442E44601B84B204
:1054B000B4F5807F02DD4FF4807500E02546EBE710
:1054C00000BFBDE8F08110B504462403FFF75CFF80
:1054D000FFF797FF0020604908602020FFF756FE85
:1054E000C4F30740FFF752FEC4F30720FFF74EFE58
:1054F000E0B2FFF74BFE01205849C1F8B002FFF7B8
:1055000080FF10BD2DE9F05F81460F461646DFF89B
:1055100050B14FEA1738C7F30B0ACAF58054A642B8
:1055200000DC344644E04FEA08314FF480525846DC
:10553000FFF742FF002508E00AEB05001BF800001A
:10554000FF2800D003E0681C85B2A542F4DB00BF51
:10555000A54216DA4046FFF7B6FF002507E019F826
:10556000050005EB0A010BF80100681C85B2A54295
:10557000F5DB4FEA08314FF480525846FFF780FFC1
:1055800004E0224639464846FFF77AFFA64200D19A
:105590000FE008F101084FF0000AA1442744301B36
:1055A00086B2B6F5805F02DD4FF4805400E03446E9
:1055B000B9E700BFBDE8F09F10B5FFF7E5FEFFF7C4
:1055C00020FF002024490860C720FFF7DFFD0120ED
:1055D0002249C1F8B002FFF714FF10BD10B500203A
:1055E0001D490860B920FFF7D1FD01201B49C1F812
:1055F000B002032000F0BAFC10BD10B5002016491F
:105600000860AB20FFF7C2FD01201449C1F8B002C9
:10561000032000F0ABFC10BD30B502460B46002164
:1056200000244FF6FF7000BF12E0555C6840002474
:105630000AE000F0010525B14AF2010585EA6000A3
:1056400000E04010651CACB2082CF2DB4D1CA9B286
:105650009942EADB30BD0000B08240420080404207
:105660000A0F002070B503460C4603E014F8015BF6
:1056700003F8015B151EA2F10102F7D170BD30B530
:10568000034601E003F8011B141EA2F10102F9D147
:1056900030BD10B504467A4951F824104A007949C2
:1056A00051F824000021FFF7EAFF774951F8242040
:1056B00074490C3951F824000021FFF7E0FF012163
:1056C00070480C30015510BD10B501460023002272
:1056D00007E06C4850F8210030F8120000B15B1C64
:1056E000521C674850F821009042F2D86420584379
:1056F000634C54F82140B0FBF4F0C0B210BD2DE96A
:10570000F04704460F460025A9465E480C30005D70
:1057100020B95C4814380168204688471FB94FF00B
:10572000FF30BDE8F087594850F82400B7FBF0F689
:10573000564850F82400B7FBF0F100FB117000B19F
:10574000761C4F4850F82400451E20E04D4850F884
:10575000240030F8150010B909F1010901E04FF0FB
:105760000009B14512D14FF0000808E0454850F853
:10577000240005EB080220F8126008F10108B0458A
:10578000F4D3424850F824006843CAE76D1E002D48
:10579000DCDA4FF0FF30C4E72DE9F04104460E4655
:1057A00038480C30005D38B9364814380168204656
:1057B00088470120BDE8F081334850F82400B0420A
:1057C00017D9324850F82400B6FBF0F12D4850F8B4
:1057D000240030F81120002507E00023294850F864
:1057E00024004F1920F817306D1C9542F5DB00207E
:1057F000E0E70220DEE770B505460C4604B970BD4F
:1058000020480C3850F82500261A31462846FFF764
:10581000C3FF00BFF3E770B504460E46314620468D
:10582000FFF76DFF0546681C08B9002070BD1548DC
:105830000C3850F824002844F8E72DE9F0410446DC
:105840000F46164631462046FFF759FF0546681CAD
:1058500010B90020BDE8F0810A490C3951F8241034
:10586000481932463946FFF7FDFE39462046FFF714
:10587000C2FF04480C3850F824002844EAE700002E
:10588000C0AE0008E0010020D8AE0008CCAE000891
:1058900030B52DED028B87B00446B0EE408A0D4640
:1058A000BCEEC80A8DED010A0020ADF80800ADF885
:1058B0000A00ADF80C50ADF810000C20ADF80E0049
:1058C000022C02D0032C7DD14CE00121022001F0FA
:1058D00001F80121880401F046F807220A218F48C7
:1058E00000F0E5FD07220B218C4800F0E0FD4FF4AD
:1058F0004060059002208DF818008DF819000020F6
:105900008DF81A0001208DF81B0005A9834800F0CE
:1059100043FD01A9824801F098F90021804801F077
:105920001CFA00BF40217E4801F0F2FA0128F9D1AB
:1059300040217B4801F0F9FA012240F225517848D4
:1059400001F0C1FA27208DF8000005208DF8010034
:1059500000208DF8020001208DF80300684600F059
:105960002AFC4FE00121042000F0B4FF0121C8040B
:1059700000F0F9FF08220A216A4800F098FD082289
:105980000B21684800F093FD4FF440600590022021
:105990008DF818008DF8190000208DF81A000120EC
:1059A0008DF81B0005A95F4800F0F6FC01A95E48D0
:1059B00001F04BF901215C4801F0CFF900BF402113
:1059C000594800E01DE001F0A3FA0128F7D1402179
:1059D000554801F0AAFA012240F22551524801F03F
:1059E00072FA34208DF8000002208DF801000020AA
:1059F0008DF8020001208DF80300684600F0DBFB03
:105A000000E000BF00BF07B0BDEC028B30BD70B539
:105A100004460D46022C11D0032C1FD129464248C2
:105A200001F0C6F900BF40213F4801F071FA00289B
:105A3000F9D040213C4801F078FA10E02946384876
:105A400001F0B6F900BF4021354801F061FA0028A5
:105A5000F9D04021324801F068FA00E000BF00BFF1
:105A600070BD0146022907D003290BD12E48001D25
:105A700000882E4A107009E02948001D00882B4A32
:105A8000107003E00020294A107000BF00BF2748B3
:105A90000078704710B503F043F90821204801F061
:105AA00037FA38B10220FFF7DCFF40F225511C48DD
:105AB00001F07FFA40F22551194801F03FFAF8B1A0
:105AC0001748001D0088C4B2194890F86A000128E0
:105AD00000D110BD164890F8681090F86800401C7E
